:020000040800F2
:1000000000000220FD28000881150008871500085F
:100010008D150008931500089915000800000000D0
:100020000000000000000000000000009F15000814
:10003000AD15000800000000BB150008C915000838
:100040004D2900084D2900084D2900084D290008B8
:100050004D2900084D2900084D2900084D290008A8
:100060004D2900084D2900084D2900084D29000898
:100070004D2900084D2900084D2900084D29000888
:100080004D2900084D2900084D29000800000000F6
:100090000000000000000000000000004D290008E2
:1000A0004D290008D51500084D2900084D290008E4
:1000B0004D2900084D2900084D2900084D29000848
:1000C0004D2900084D2900084D2900084D29000838
:1000D0004D2900084D2900084D29000800000000A6
:1000E0004D2900084D2900084D2900080000000096
:1000F0000000000000000000000000004D29000882
:10010000000000004D2900084D2900084D29000875
:1001100000000000000000000000000000000000DF
:100120004D2900084D2900084D2900084D290008D7
:100130004D29000800000000000000000000000041
:100140000000000000000000000000004D29000831
:100150004D2900084D2900084D2900084D290008A7
:100160004D2900084D290008000000000000000093
:10017000000000000000000000000000000000007F
:10018000000000004D2900080000000000000000F1
:080190004D2900084D2900086B
:1001A00010B5054C237833B9044B13B10448AFF3B1
:1001B00000800123237010BDE80100200000000032
:1001C0008C95000808B5034B1BB103490348AFF3F6
:1001D000008008BD00000000EC0100208C950008A4
:1001E000034613F8012B002AFBD1181A0138704777
:1001F00001F0FF01102A2BDB10F0070F08D010F8D8
:10020000013B013A8B422DD010F0070F42B3F6D1DB
:10021000F0B441EA012141EA014122F007047FF0F4
:1002200000070023F0E80256083C85EA010586EA4B
:10023000010685FA47F5A3FA87F586FA47F6A5FA87
:1002400087F68EB9EED1F0BC01F0FF0102F0070293
:1002500032B110F8013B013A83EA010313B1F8D13E
:100260000020704701387047002D06BF354603381F
:10027000073815F0010F07D1013015F4807F02BF58
:10028000013015F4C03F0130F0BC0138704700BFA9
:1002900081F0004102E000BF83F0004330B54FEA37
:1002A00041044FEA430594EA050F08BF90EA020FA4
:1002B0001FBF54EA000C55EA020C7FEA645C7FEA37
:1002C000655C00F0E2804FEA5454D4EB5555B8BF5A
:1002D0006D420CDD2C4480EA020281EA030382EACB
:1002E000000083EA010180EA020281EA0303362D5D
:1002F00088BF30BD11F0004F4FEA01314FF4801C30
:100300004CEA113102D0404261EB410113F0004F41
:100310004FEA03334CEA133302D0524263EB4303F8
:1003200094EA050F00F0A780A4F10104D5F1200E96
:100330000DDB02FA0EFC22FA05F2801841F10001F1
:1003400003FA0EF2801843FA05F359410EE0A5F1C5
:1003500020050EF1200E012A03FA0EFC28BF4CF0F6
:10036000020C43FA05F3C01851EBE37101F00045AC
:1003700007D54FF0000EDCF1000C7EEB00006EEBB9
:100380000101B1F5801F1BD3B1F5001F0CD3490843
:100390005FEA30004FEA3C0C04F101044FEA44529A
:1003A00012F5800F80F09A80BCF1004F08BF5FEA21
:1003B000500C50F1000041EB045141EA050130BD01
:1003C0005FEA4C0C404141EB0101013C28BFB1F513
:1003D000801FE9D291F0000F04BF01460020B1FA5E
:1003E00081F308BF2033A3F10B03B3F120020CDA31
:1003F0000C3208DD02F1140CC2F10C0201FA0CF00F
:1004000021FA02F10CE002F11402D8BFC2F1200C73
:1004100001FA02F120FA0CFCDCBF41EA0C01904029
:10042000E41AA2BF01EB0451294330BD6FEA040472
:100430001F3C1CDA0C340EDC04F11404C4F120025D
:1004400020FA04F001FA02F340EA030021FA04F36F
:1004500045EA030130BDC4F10C04C4F1200220FAC6
:1004600002F001FA04F340EA0300294630BD21FA04
:1004700004F0294630BD94F0000F83F4801306BFCA
:1004800081F480110134013D4EE77FEA645C18BFBE
:100490007FEA655C29D094EA050F08BF90EA020F55
:1004A00005D054EA000C04BF1946104630BD91EA4D
:1004B000030F1EBF0021002030BD5FEA545C05D150
:1004C0004000494128BF41F0004130BD14F580048F
:1004D0003CBF01F5801130BD01F0004545F0FE4103
:1004E00041F470014FF0000030BD7FEA645C1ABF38
:1004F000194610467FEA655C1CBF0B46024650EA6F
:10050000013406BF52EA033591EA030F41F400219A
:1005100030BD00BF90F0000F04BF0021704730B520
:100520004FF4806404F132044FF000054FF00001F5
:1005300050E700BF90F0000F04BF0021704730B5B6
:100540004FF4806404F1320410F0004548BF40428B
:100550004FF000013EE700BF42004FEAE2014FEAE0
:1005600031014FEA02701FBF12F07F4393F07F4FBB
:1005700081F06051704732F07F4208BF704793F0BE
:100580007F4F04BF41F40021704730B54FF46074D1
:1005900001F0004521F000411CE700BF50EA0102D4
:1005A00008BF704730B54FF000050AE050EA01027D
:1005B00008BF704730B511F0004502D5404261EBED
:1005C00041014FF4806404F132045FEA915C3FF42E
:1005D000D8AE4FF003025FEADC0C18BF03325FEACB
:1005E000DC0C18BF033202EBDC02C2F1200300FA7C
:1005F00003FC20FA02F001FA03FE40EA0E0021FAA1
:1006000002F11444BDE600BF70B54FF0FF0C4CF48E
:10061000E06C1CEA11541DBF1CEA135594EA0C0F40
:1006200095EA0C0F00F0DEF82C4481EA030621EA7B
:100630004C5123EA4C5350EA013518BF52EA0335B6
:1006400041F4801143F4801338D0A0FB02CE4FF068
:100650000005E1FB02E506F00042E0FB03E54FF098
:100660000006E1FB03569CF0000F18BF4EF0010E90
:10067000A4F1FF04B6F5007F64F5407404D25FEA8C
:100680004E0E6D4146EB060642EAC62141EA55513F
:100690004FEAC52040EA5E504FEACE2EB4F1FD0C81
:1006A00088BFBCF5E06F1ED8BEF1004F08BF5FEAFF
:1006B000500E50F1000041EB045170BD06F00046B1
:1006C00046EA010140EA020081EA0301B4EB5C045E
:1006D000C2BFD4EB0C0541EA045170BD41F4801156
:1006E0004FF0000E013C00F3AB8014F1360FDEBF7B
:1006F000002001F0004170BDC4F10004203C35DA57
:100700000C341BDC04F11404C4F1200500FA05F3D9
:1007100020FA04F001FA05F240EA020001F000427A
:1007200021F0004110EBD37021FA04F642EB0601F0
:100730005EEA430E08BF20EAD37070BDC4F10C041A
:10074000C4F1200500FA04F320FA05F001FA04F2DE
:1007500040EA020001F0004110EBD37041F10001CA
:100760005EEA430E08BF20EAD37070BDC4F12005D5
:1007700000FA05F24EEA020E20FA04F301FA05F23D
:1007800043EA020321FA04F001F0004121FA04F2E5
:1007900020EA020000EBD3705EEA430E08BF20EAB5
:1007A000D37070BD94F0000F0FD101F000464000EF
:1007B00041EB010111F4801F08BF013CF7D041EA71
:1007C000060195F0000F18BF704703F00046520075
:1007D00043EB030313F4801F08BF013DF7D043EA46
:1007E0000603704794EA0C0F0CEA135518BF95EAFC
:1007F0000C0F0CD050EA410618BF52EA4306D1D183
:1008000081EA030101F000414FF0000070BD50EAA1
:10081000410606BF1046194652EA430619D094EA2B
:100820000C0F02D150EA013613D195EA0C0F05D115
:1008300052EA03361CBF104619460AD181EA030169
:1008400001F0004141F0FE4141F470014FF0000021
:1008500070BD41F0FE4141F4780170BD70B54FF0BC
:10086000FF0C4CF4E06C1CEA11541DBF1CEA13553C
:1008700094EA0C0F95EA0C0F00F0A7F8A4EB05041E
:1008800081EA030E52EA03354FEA013100F0888015
:100890004FEA03334FF0805545EA131343EA1263DE
:1008A0004FEA022245EA111545EA10654FEA002693
:1008B0000EF000419D4208BF964244F1FD0404F54C
:1008C000407402D25B084FEA3202B61A65EB0305A8
:1008D0005B084FEA32024FF480104FF4002CB6EB65
:1008E000020E75EB030E22BFB61A754640EA0C00E5
:1008F0005B084FEA3202B6EB020E75EB030E22BF25
:10090000B61A754640EA5C005B084FEA3202B6EB65
:10091000020E75EB030E22BFB61A754640EA9C0024
:100920005B084FEA3202B6EB020E75EB030E22BFF4
:10093000B61A754640EADC0055EA060E18D04FEAB2
:10094000051545EA16754FEA06164FEAC30343EA52
:1009500052734FEAC2025FEA1C1CC0D111F4801F1F
:100960000BD141EA00014FF000004FF0004CB6E718
:1009700011F4801F04BF01430020B4F1FD0C88BFB7
:10098000BCF5E06F3FF6AFAEB5EB030C04BFB6EBC2
:10099000020C5FEA500C50F1000041EB045170BDB5
:1009A0000EF0004E4EEA113114EB5C04C2BFD4EBE2
:1009B0000C0541EA045170BD41F480114FF0000E66
:1009C000013C90E645EA060E8DE60CEA135594EAE2
:1009D0000C0F08BF95EA0C0F3FF43BAF94EA0C0FE5
:1009E0000AD150EA01347FF434AF95EA0C0F7FF45A
:1009F00025AF104619462CE795EA0C0F06D152EAAE
:100A000003353FF4FDAE1046194622E750EA410691
:100A100018BF52EA43067FF4C5AE50EA41047FF4A2
:100A20000DAF52EA43057FF4EBAE12E74FF0FF3C07
:100A300006E000BF4FF0010C02E000BF4FF0010CD8
:100A40004DF804CD4FEA410C7FEA6C5C4FEA430C51
:100A500018BF7FEA6C5C1BD001B050EA410C0CBFA0
:100A600052EA430C91EA030F02BF90EA020F002002
:100A7000704710F1000F91EA030F58BF994208BF69
:100A800090422CBFD8176FEAE37040F00100704726
:100A90004FEA410C7FEA6C5C02D150EA013C07D17D
:100AA0004FEA430C7FEA6C5CD6D152EA033CD3D0C8
:100AB0005DF8040B704700BF8446104662468C46C2
:100AC0001946634600E000BF01B5FFF7B7FF0028F5
:100AD00048BF10F1000F01BD4DF808EDFFF7F4FF1E
:100AE0000CBF012000205DF808FB00BF4DF808EDA9
:100AF000FFF7EAFF34BF012000205DF808FB00BFCC
:100B00004DF808EDFFF7E0FF94BF012000205DF8ED
:100B100008FB00BF4DF808EDFFF7CEFF94BF0120A2
:100B200000205DF808FB00BF4DF808EDFFF7C4FF9B
:100B300034BF012000205DF808FB00BF4FEA410CE4
:100B40007FEA6C5C02D150EA013C0AD14FEA430CC7
:100B50007FEA6C5C02D152EA033C02D14FF0000004
:100B600070474FF0010070474FEA410212F5001242
:100B700015D211D56FF47873B3EB625212D94FEAE4
:100B8000C12343F0004343EA505311F0004F23FACE
:100B900002F018BF404270474FF00000704750EA23
:100BA000013005D111F0004008BF6FF000407047E0
:100BB0004FF00000704700BF53B94AB9002908BF81
:100BC00000281CBF4FF0FF314FF0FF3000F06EB92E
:100BD000ADF1080C6DE904CE00F006F8DDF804E094
:100BE000DDE9022304B070472DE9F047089D044673
:100BF0008C46002B40F083808A42174647D9B2FAD0
:100C000082F242B1C2F1200024FA00F091409740F4
:100C100040EA010C94404FEA1748230CBCFBF8F65D
:100C20001FFA87FE08FB16C143EA014306FB0EF1DB
:100C3000994209D9FB1806F1FF3080F019819942D9
:100C400040F21681023E3B445B1AA4B2B3FBF8F0BB
:100C500008FB103344EA034400FB0EFEA64509D905
:100C60003C1900F1FF3380F00581A64540F2028176
:100C700002383C4440EA0640A4EB0E0400261DB1B5
:100C8000D4400023C5E900433146BDE8F08702B9EE
:100C9000FFDEB2FA82F2002A50D1CB1B4FEA174E88
:100CA0001FFA87F80126B3FBFEFC210C0EFB1C3358
:100CB00041EA034108FB0CF38B4207D979180CF188
:100CC000FF3002D28B4200F2E9808446C91AA3B2F7
:100CD000B1FBFEF00EFB101143EA014408FB00F8E3
:100CE000A04507D93C1900F1FF3302D2A04500F21C
:100CF000D9801846A4EB080440EA0C40BFE78B42B9
:100D000009D9002D00F0B1800026C5E90001304668
:100D10003146BDE8F087B3FA83F6002E4AD18B4204
:100D200002D3824200F2B880841A61EB03010120F1
:100D30008C46002DA8D0C5E9004CA5E7C2F12003E0
:100D400020FA03F6974001FA02F04FEA174ED94015
:100D50003043030CB1FBFEF61FFA87F80EFB1611A9
:100D600043EA014306FB08F1994204FA02F409D967
:100D7000FB1806F1FF3C80F08D80994240F28A809A
:100D8000023E3B445B1A81B2B3FBFEF00EFB103314
:100D900041EA034100FB08F38B4207D9791800F1BF
:100DA000FF3C73D28B4271D902383944CB1A40EAE6
:100DB000064678E7C6F1200C03FA06F422FA0CF393
:100DC0001C4320FA0CF701FA06F34FEA144E21FAFD
:100DD0000CF11F433B0CB1FBFEF91FFA84F80EFB2C
:100DE000191143EA014109FB08FA8A4502FA06F2A1
:100DF00000FA06F308D9611809F1FF3048D28A4594
:100E000046D9A9F102092144A1EB0A01BFB2B1FB05
:100E1000FEF00EFB101147EA014700FB08F8B84549
:100E200007D9E71900F1FF312ED2B8452CD9023885
:100E3000274440EA0940A7EB0807A0FB02894F4579
:100E4000C64649461AD317D05DB1B3EB0E0267EB25
:100E5000010707FA0CFCF2404CEA0202F740C5E930
:100E6000002700263146BDE8F0872E4628460BE7CE
:100E70000646E9E61846FDE64345E5D2B8EB020E24
:100E800069EB04010138DFE70846D2E760468DE7E9
:100E90008146B9E7664675E730464AE7ACF1020C91
:100EA000394413E702383C4424E700BF704700BFD1
:100EB00080B400AF144BDB68134A23F08073D36017
:100EC000114BDB68104A43F08073D3600F4B1B68F3
:100ED0000E4A23F0010313600C4B1B680B4A43F0CE
:100EE00001031360094B00225A6000BF00BF00BF1E
:100EF000064B5B68002B01D0002300E0012318465D
:100F0000BD465DF8047B7047F0ED00E0001000E0A6
:100F100080B58AB000AF07F1140300221A605A604E
:100F20009A60DA601A6100233B612E4B1B6B2D4ADD
:100F300043F0040313632B4B1B6B03F004033B616F
:100F40003B690023FB60274B1B6B264A43F0800361
:100F50001363244B1B6B03F08003FB60FB680023CF
:100F6000BB60204B1B6B1F4A43F0020313631D4BF6
:100F70001B6B03F00203BB60BB6800237B60194B53
:100F80001B6B184A43F001031363164B1B6B03F0F2
:100F900001037B607B68002240F20161124801F08E
:100FA000DFFF01237B610123BB610023FB61002381
:100FB0003B6207F1140319460B4801F04DFE4FF454
:100FC000C0637B610123BB610023FB6101233B62A2
:100FD00007F114031946044801F03EFE00BF28370C
:100FE000BD4680BD003802400004024080B500AF1D
:100FF000124B134A1A60114B124A5A600F4B0022CF
:101000009A600E4B0022DA600C4B4FF480421A615A
:101010000A4B00225A61094B00229A61074B0022B9
:10102000DA61064B00221A62044801F0CDFF034644
:10103000002B01D000F03AFA00BF80BD1002002062
:1010400000540040A086010080B58AB000AF7860EF
:1010500007F1140300221A605A609A60DA601A617C
:101060007B681B68194A93422CD100233B61184BC3
:101070001B6B174A43F002031363154B1B6B03F002
:1010800002033B613B694FF4C0737B611223BB6178
:101090000123FB6103233B6204237B6207F11403FA
:1010A00019460C4801F0D8FD0023FB60084B1B6C6F
:1010B000074A43F400131364054B1B6C03F400133D
:1010C000FB60FB6800BF2837BD4680BD0054004070
:1010D000003802400004024080B584B000AF786060
:1010E0000E4B5B68FB6003F015FD03460C4AA2FB48
:1010F00003239B0CBB607B68BA6802FB03F37B6035
:1011000000BF064B5A68FB68D21A7B689A42F8D334
:1011100000BF00BF1037BD4680BD00BF001000E01B
:1011200083DE1B4380B5B0B000AF01F011FC00F0CE
:10113000E7F8FFF7BDFEFFF7EBFE00F0BDF900F0AA
:10114000C7FCFFF753FF00F02BFB00F0CBFB00F0D8
:1011500015FC00F057F900F071F9604B1B68642230
:101160005A6300215D4804F003F85D4B1B686FF083
:1011700001021A615A4803F033FF32230F22594902
:10118000594805F005F80023BB6407F14C036022C1
:101190000021184605F05EFB002000F0C1FD32235F
:1011A00009225249504804F0F3FF0023A7F8B63053
:1011B00000233B603B1D42220021184605F04AFBFC
:1011C0000023C7F8B030002387F8BF30002001F0BB
:1011D0005BFB0346A7F8B630002001F055FB034641
:1011E0001A46B7F8B6301344A7F8B630B7F8B63099
:1011F0005B08A7F8B630B7F8B62007F148033C49BA
:10120000184605F099FFB7F8B6303A4AA2FB032317
:101210009B089BB2C7F8B0300023C7F8B83017E07E
:10122000D7F8B830D7F8B0209A4206D93A46D7F85E
:10123000B83013443D221A7005E03A46D7F8B8306A
:10124000134400221A70D7F8B8300133C7F8B83009
:10125000D7F8B830452BE3DD3A4607F14803264975
:10126000184605F069FFD7F8B0309BB20F339AB239
:1012700007F148010A231C4804F08AFF1F48FFF7C2
:101280002BFF164B1B685B6BA7F8AE30B7F8AE3080
:10129000C72B0BD897F8BF30002B07D10F4B1B681B
:1012A0005A6B0E4B1B6801325A6302E0012387F828
:1012B000BF30B7F8AE30642B0BD997F8BF30012B95
:1012C00007D1064B1B685A6B044B1B68013A5A63E3
:1012D00002E0002387F8BF3078E700BF68030020F2
:1012E000B4020020A8950008D0040020B89500089A
:1012F000C4950008CDCCCCCCDC950008A0860100BC
:1013000080B59AB000AF07F13803302200211846AB
:1013100005F0A0FA07F1240300221A605A609A60CF
:10132000DA601A6107F10C0300221A605A609A60B1
:10133000DA601A615A610023BB60304B1B6C2F4A84
:1013400043F0805313642D4B1B6C03F08053BB6040
:10135000BB6800237B602A4B1B68294A43F4404347
:101360001360274B1B6803F440437B607B680523B5
:10137000BB634FF48033FB6301233B6402233B6573
:101380004FF480037B650C23BB656023FB65022360
:101390003B6604237B6607F13803184602F0A6FF7C
:1013A0000346002B01D000F081F80F237B6202235B
:1013B000BB620023FB624FF480533B6300237B63DB
:1013C00007F124030321184603F008FA0346002B13
:1013D00001D000F06BF80223FB604FF48073FB61D7
:1013E00007F10C03184603F0C9FB0346002B01D09C
:1013F00000F05CF800BF6837BD4680BD0038024091
:101400000070004080B500AF00220021192001F0DB
:10141000ECFB192001F005FC00BF80BD80B582B057
:1014200000AF78604FF40071034801F0B2FD00BFD7
:101430000837BD4680BD00BF0004024080B584B0BF
:1014400000AF0023FB6020E0FB689BB25B0099B219
:1014500005230222114802F057FA0346002B11D14E
:101460003B46FA680E49184605F066FE39463223B7
:101470000A220C4804F08CFE322303220A49094850
:1014800004F086FEFB680133FB60FB687F2BDBDD2D
:1014900000BF00BF1037BD4680BD00BF1002002056
:1014A00014960008D00400201096000880B400AF05
:1014B00072B600BFFEE7000080B500AF0F4B104AC8
:1014C0001A600E4B00225A600C4B7F229A600B4B25
:1014D000FF22DA60094B00221A61084B00225A6190
:1014E000064B00229A61054803F038FC0346002BA6
:1014F00001D0FFF7DBFF00BF80BD00BF94020020DA
:101500000028004080B483B000AF78607B681B681F
:10151000054A934202D1054B01221A6000BF0C37E5
:10152000BD465DF8047B7047002800403C0E4742F2
:1015300080B582B000AF00237B60104B5B6C0F4A1C
:1015400043F4804353640D4B5B6C03F480437B6036
:101550007B6800233B60094B1B6C084A43F08053B7
:101560001364064B1B6C03F080533B603B68062002
:1015700001F030FB00BF0837BD4680BD0038024097
:1015800080B400AFFEE780B400AFFEE780B400AFE8
:10159000FEE780B400AFFEE780B400AFFEE780B4A2
:1015A00000AF00BFBD465DF8047B704780B400AF5C
:1015B00000BFBD465DF8047B704780B400AF00BF3C
:1015C000BD465DF8047B704780B500AF01F012FAAC
:1015D00000BF80BD80B500AF034803F079FE03482B
:1015E00003F076FE00BF80BD68030020B402002037
:1015F00080B400AF01231846BD465DF8047B7047F8
:1016000080B582B000AF7860396005F0F9F8034624
:1016100016221A604FF0FF3318460837BD4680BDCA
:1016200080B582B000AF78604FF0FF317868FFF787
:10163000E7FFFEE780B586B000AFF860B9607A607A
:1016400000237B610AE0AFF300800146BB685A1CAF
:10165000BA60CAB21A707B6901337B617A697B68B0
:101660009A42F0DB7B6818461837BD4680BD80B5CE
:1016700086B000AFF860B9607A6000237B6109E052
:10168000BB685A1CBA601B781846AFF300807B69B0
:1016900001337B617A697B689A42F1DB7B6818468B
:1016A0001837BD4680BD80B483B000AF78604FF07E
:1016B000FF3318460C37BD465DF8047B704780B495
:1016C00083B000AF786039603B684FF400525A60D5
:1016D000002318460C37BD465DF8047B704780B484
:1016E00083B000AF7860012318460C37BD465DF823
:1016F000047B704780B485B000AFF860B9607A6051
:10170000002318461437BD465DF8047B704700007F
:1017100080B586B000AF7860144A154BD31A7B6150
:101720007B693B61134B1B68002B02D1114B124AA2
:101730001A60104B1A687B6813443A699A4207D2C0
:1017400005F05EF803460C221A604FF0FF3309E003
:10175000084B1B68FB60074B1A687B681344054AFB
:101760001360FB6818461837BD4680BD0000022094
:1017700000040000040200206005002080B400AFD7
:10178000064BD3F88830054A43F47003C2F888301A
:1017900000BFBD465DF8047B704700BF00ED00E070
:1017A00080B596B000AF07F1480300221A605A6076
:1017B0009A60DA6007F1400300221A605A6007F16C
:1017C000240300221A605A609A60DA601A615A6132
:1017D0009A613B1D20220021184605F03BF83F4B43
:1017E0003F4A1A603D4B40F2E7325A603B4B0022C1
:1017F0009A603A4B40F2CF72DA60384B00221A619D
:10180000364B00225A61354B00229A61334803F06F
:101810008BFB0346002B01D0FFF748FE4FF48053AB
:10182000BB6407F1480319462C4803F037FF034611
:10183000002B01D0FFF73AFE284803F033FC0346A3
:10184000002B01D0FFF732FE00233B6400237B64B2
:1018500007F140031946214804F062FB0346002BC0
:1018600001D0FFF723FE60237B626323BB6200236A
:10187000FB6200233B6300237B630023BB630023E5
:10188000FB6307F1240300221946144803F048FEC5
:101890000346002B01D0FFF709FE00237B600023E5
:1018A000BB600023FB6000233B6100237B614FF49E
:1018B0000053BB6100233B623B1D1946074804F0FF
:1018C0009DFB0346002B01D0FFF7F0FD034800F01D
:1018D000C5F800BF5837BD4680BD00BF6803002073
:1018E0000000014080B586B000AF07F10803002278
:1018F0001A605A609A60DA603B4600221A605A60A9
:101900001D4B4FF080421A601B4B63225A601A4BEA
:1019100000229A60184B4FF0FF32DA60164B00221B
:101920001A61154B00229A61134803F0FDFA034631
:10193000002B01D0FFF7BAFD4FF48053BB6007F1D5
:10194000080319460C4803F0A9FE0346002B01D0FA
:10195000FFF7ACFD00233B6000237B603B4619464C
:10196000054804F0DDFA0346002B01D0FFF79EFD89
:1019700000BF1837BD4680BD1C04002080B500AFF5
:101980000E4B0F4A1A600D4B40F2E7325A600B4B78
:1019900000229A60094B6322DA60084B00221A6128
:1019A000064B00229A61054803F0BEFA0346002B5D
:1019B00001D0FFF77BFD00BF80BD00BFB402002057
:1019C0000044014080B487B000AF78607B681B683A
:1019D0001F4A93420ED100237B611E4B5B6C1D4A54
:1019E00043F0010353641B4B5B6C03F001037B6109
:1019F0007B6926E07B681B68B3F1804F0ED1002322
:101A00003B61144B1B6C134A43F001031364114BED
:101A10001B6C03F001033B613B6912E07B681B68B0
:101A20000D4A93420DD10023FB600A4B5B6C094ABF
:101A300043F400335364074B5B6C03F40033FB60E7
:101A4000FB6800BF1C37BD465DF8047B704700BFD4
:101A500000000140003802400044014080B588B0D9
:101A600000AF786007F10C0300221A605A609A6098
:101A7000DA601A617B681B68124A93421ED1002308
:101A8000BB60114B1B6B104A43F0010313630E4BF9
:101A90001B6B03F00103BB60BB684FF48073FB60FA
:101AA00002233B6100237B610023BB610123FB61B7
:101AB00007F10C031946054801F0CEF800BF2037A6
:101AC000BD4680BD000001400038024000000240D9
:101AD00080B500AF114B124A1A60104B4FF4E1323F
:101AE0005A600E4B00229A600C4B0022DA600B4BBE
:101AF00000221A61094B0C225A61084B00229A619C
:101B0000064B0022DA61054804F0E8FA0346002B90
:101B100001D0FFF7CBFC00BF80BD00BFD004002088
:101B20000010014080B58AB000AF786007F114035F
:101B300000221A605A609A60DA601A617B681B683A
:101B4000194A93422CD100233B61184B5B6C174A16
:101B500043F010035364154B5B6C03F010033B61BF
:101B60003B690023FB60114B1B6B104A43F00103E0
:101B700013630E4B1B6B03F00103FB60FB684FF418
:101B8000C0637B610223BB610023FB6103233B62D3
:101B900007237B6207F114031946054801F05CF83E
:101BA00000BF2837BD4680BD00100140003802400C
:101BB0000000024090B587B004AF03460A46FB71AF
:101BC0001346BB71094B1C68094B1868FB799AB224
:101BD0003223029301230193BB1D00930123522161
:101BE000A04700BF0C37BD4690BD00BF08000020D5
:101BF0000400002090B589B004AF03460A46FB718B
:101C00001346BB80BB881B0A9BB2DBB23B73BB880D
:101C1000DBB27B73094B1C68094B1868FB799AB2DD
:101C2000322302930223019307F10C030093012353
:101C30005221A04700BF1437BD4690BD08000020C8
:101C40000400002090B589B004AF0346FB710A4B35
:101C50001C680A4B1868FB799AB23223029301235D
:101C6000019307F10F03009301235221A047FB7B4F
:101C700018461437BD4690BD0C000020040000201B
:101C800090B589B004AF0346FB710023FB810023AC
:101C9000BB81114B1C68114B1868FB799AB2322337
:101CA00002930223019307F10C03009301235221B5
:101CB000A0473B7B1B021AB2B7F90E3013431BB28D
:101CC000FB817B7B9AB2FB891343FB81FB8918461E
:101CD0001437BD4690BD00BF0C000020040000205A
:101CE00090B587B004AF03463960FB711346BB71F2
:101CF000094B1C68094B1868FB799AB2BB799BB2F7
:101D00003221029101933B68009301235221A047A5
:101D100000BF0C37BD4690BD0C0000200400002021
:101D200080B586B000AF0346FB71FB79002B0AD06B
:101D30008920FFF787FF034643F00103DBB2194612
:101D40008920FFF737FF00218820FFF733FF0121AB
:101D50008020FFF72FFF0121FF20FFF72BFF00213D
:101D60000020FFF727FF9120FFF76CFF03461A467C
:101D70003C4B1A7001210020FFF71CFF0021FF20BF
:101D8000FFF718FF00218020FFF714FF6020FFF706
:101D900059FF034643F01203DBB219466020FFF7F8
:101DA00009FFB5EE000A00F09FFAFF210120FFF7BE
:101DB00001FF07F1130207F114031146184600F062
:101DC000C9FA0346002B01D10023EDE107F10C0312
:101DD00006221946B020FFF783FF0121FF20FFF7FD
:101DE000E9FE00214F20FFF7E5FE2C214E20FFF7F2
:101DF000E1FE0021FF20FFF7DDFEB421B620FFF752
:101E0000D9FEFB7C002B01D00C2300E000237B7566
:101E10000023FB750023BB753EE0BA7D7B7D9A42B3
:101E200003D33B7DFA7D9A421ED1BB7DDB08D8B23D
:101E3000034607F11802134413F80C3C5AB2BB7D59
:101E400003F00703012101FA03F35BB2DB435BB24A
:101E500013405AB20346D2B207F118010B4403F8FB
:101E60000C2C16E044050020BB7DDB08DBB207F13B
:101E70001802134413F80C3C1A46BB7D03F0070309
:101E800042FA03F303F00103002B02D0FB7D013380
:101E9000FB75BB7D0133BB75BB7D2F2BBDD907F116
:101EA0000C0306221946B020FFF71AFF0121FF207C
:101EB000FFF780FE00210020FFF77CFE0021FF20BD
:101EC000FFF778FE00210920FFF774FE00211020A3
:101ED000FFF770FE00211120FFF76CFE0121242086
:101EE000FFF768FEFF212520FFF764FE0021752023
:101EF000FFF760FE0121FF20FFF75CFE2C214E2042
:101F0000FFF758FE00214820FFF754FE2021302023
:101F1000FFF750FE0021FF20FFF74CFE0921302083
:101F2000FFF748FE00215420FFF744FE0421312032
:101F3000FFF740FE03213220FFF73CFE83214020C3
:101F4000FFF738FE25214620FFF734FE00216020F0
:101F5000FFF730FE00212720FFF72CFE062150203E
:101F6000FFF728FE00215120FFF724FE9621522082
:101F7000FFF720FE08215620FFF71CFE30215720D6
:101F8000FFF718FE00216120FFF714FE00216220F8
:101F9000FFF710FE00216420FFF70CFE00216520F2
:101FA000FFF708FEA0216620FFF704FE0121FF20B5
:101FB000FFF700FE32212220FFF7FCFD142147200D
:101FC000FFF7F8FDFF214920FFF7F4FD00214A202B
:101FD000FFF7F0FD0021FF20FFF7ECFD0A217A203A
:101FE000FFF7E8FD00217B20FFF7E4FD21217820A9
:101FF000FFF7E0FD0121FF20FFF7DCFD3421232066
:10200000FFF7D8FD00214220FFF7D4FDFF21442037
:10201000FFF7D0FD26214520FFF7CCFD0521462006
:10202000FFF7C8FD40214020FFF7C4FD06210E2028
:10203000FFF7C0FD1A212020FFF7BCFD40214320FF
:10204000FFF7B8FD0021FF20FFF7B4FD0321342086
:10205000FFF7B0FD44213520FFF7ACFD0121FF2043
:10206000FFF7A8FD04213120FFF7A4FD09214B2033
:10207000FFF7A0FD05214C20FFF79CFD04214D201A
:10208000FFF798FD0021FF20FFF794FD0021442079
:10209000FFF790FD20214520FFF78CFD0821472008
:1020A000FFF788FD28214820FFF784FD00216720E5
:1020B000FFF780FD04217020FFF77CFD01217120D6
:1020C000FFF778FDFE217220FFF774FD00217620D6
:1020D000FFF770FD00217720FFF76CFD0121FF2045
:1020E000FFF768FD01210D20FFF764FD0021FF20AF
:1020F000FFF760FD01218020FFF75CFDF821012042
:10210000FFF758FD0121FF20FFF754FD01218E202C
:10211000FFF750FD01210020FFF74CFD0021FF20BB
:10212000FFF748FD00218020FFF744FD04210A202D
:10213000FFF740FD8420FFF785FD034623F01003E1
:10214000DBB219468420FFF735FD01210B20FFF794
:1021500031FD00F077F90346154A1360E8210120AC
:10216000FFF728FD124B1B68184600F023F80121E9
:102170000120FFF71FFD402000F00EFB0346002B5F
:1021800001D1002310E002210120FFF713FD002000
:1021900000F002FB0346002B01D1002304E0E821FC
:1021A0000120FFF707FD012318461837BD4680BD03
:1021B0004805002080B592B000AF78604FF4A56369
:1021C000A7F840304FF47073FB874FF42573BB873B
:1021D00040F24E237B8740F2B2233B874FF42573B6
:1021E000FB8640F22623BB8644F620633B637A6875
:1021F0003B6B9A4201D200236EE0B7F84020FB8F80
:1022000013447B6407F12403184600F07DF907F1BD
:102210000C0207F124031146184600F0A7F997F8BD
:102220002430002B05D0BA697B8F13447A6C134499
:102230007B6497F82630002B07D0BA693B8F134494
:102240005B007A6C13447B6409E097F82530002B1F
:1022500005D0BA69BB8F13447A6C13447B6497F83A
:102260002730002B05D0FA69FB8E13447A6C134497
:102270007B6497F82830002B2DD0BB8E7A6C1344EA
:102280007B647A6C7B689A4201D9002324E07A68E7
:102290007B6CD31AFB62FB89DBB21946F86A00F04B
:1022A00029FA0346A7F8423097F82730002B05D0CB
:1022B0007A8AB7F842301344A7F84230B7F8423070
:1022C000184600F03DFA034619467120FFF792FCCC
:1022D000034A7B681360012318464837BD4680BD1A
:1022E000480500200000000080B582B000AF87EDF7
:1022F000010AD7ED017AF5EEC07AF1EE10FA0AD4B0
:102300007868FEF729F911A3D3E90023FEF70CFC46
:102310000346002B01D000230FE0D7ED017A9FED9B
:102320000A7A67EE877AFCEEE77A17EE903A9BB26C
:1023300019464420FFF75EFC012318460837BD46C6
:1023400080BD00BFAFF3008000000043A4703D0AD1
:10235000D7FF7F4080B584B000AF7860396001213D
:102360008020FFF727FC0121FF20FFF723FC00213D
:102370000020FFF71FFC0621FF20FFF71BFC832036
:10238000FFF760FC034643F00403DBB219468320E9
:10239000FFF710FC0721FF20FFF70CFC0121812033
:1023A000FFF708FC01218020FFF704FC6B2194203B
:1023B000FFF700FC00218320FFF7FCFB00BF832018
:1023C000FFF740FC0346002BF9D001218320FFF7E3
:1023D000F1FB9220FFF736FC0346FB73FB7B03F017
:1023E0007F03DAB27B681A70FB7BDB09DAB23B68E9
:1023F0001A7000218120FFF7DDFB0621FF20FFF787
:10240000D9FB8320FFF71EFC034623F00403DBB255
:1024100019468320FFF7CEFB0121FF20FFF7CAFBFF
:1024200001210020FFF7C6FB0021FF20FFF7C2FBC0
:1024300000218020FFF7BEFB012318461037BD4660
:1024400080BD000080B58CB000AF40F276737B8514
:102450004FF470733B854FF42573FB8440F24E2399
:10246000BB8440F2B2237B844FF425733B8440F25B
:102470002623FB837A8D3B8D1344FB6207F11803FF
:10248000184600F041F83A4607F11803114618467D
:1024900000F06CF83B7E002B05D0FA68BB8C13442F
:1024A000FA6A1344FB62BB7E002B07D0FA687B8C70
:1024B00013445B00FA6A1344FB6208E07B7E002B46
:1024C00005D0FA68FB8C1344FA6A1344FB62FB7E66
:1024D000002B05D03A693B8C1344FA6A1344FB6223
:1024E0003B7F002B05D07A69FB8B1344FA6A1344B7
:1024F000FB62044AFB6A1360FB6A18463037BD462C
:1025000080BD00BF4805002080B584B000AF786072
:102510000120FFF797FB0346FB73FB7B1B09DBB234
:1025200003F00103DAB27B681A70FB7BDB08DBB2D5
:1025300003F00103DAB27B689A70FB7B9B08DBB285
:1025400003F00103DAB27B685A70FB7B9B09DBB2B4
:1025500003F00103DAB27B68DA70FB7BDB09DAB2E5
:102560007B681A7100BF1037BD4680BD80B582B050
:1025700000AF78603960002000F05EF803469AB240
:102580003B681A804620FFF75DFB03469BB2013390
:102590009AB23B689A803B689A883B681B88DBB29A
:1025A0001946104600F06AF802463B68DA6051208E
:1025B000FFF766FB0346184600F088F803461A4604
:1025C0003B68DA803B68DA883B681B88DBB21946D7
:1025D000104600F053F802463B681A61012000F0F3
:1025E0002BF803469AB23B685A807120FFF748FBEC
:1025F0000346184600F06AF803461A463B681A81FB
:102600007B68DB78002B07D03B681A893B68DB8846
:10261000D31A9AB23B681A813B681A893B685B8877
:10262000DBB21946104600F029F802463B685A61B1
:1026300000BF0837BD4680BD80B582B000AF0346FD
:10264000FB71FB79002B08D15020FFF7FBFA034602
:102650000133DBB25B00DBB20CE0FB79012B08D16C
:102660007020FFF7EFFA03460133DBB25B00DBB209
:1026700000E0FF2318460837BD4680BD80B485B012
:1026800000AF03460A46FB8013467B717B790D4AF7
:1026900002FB03F303F5FA730B4AA2FB03239B0926
:1026A000FB60FB88FA6802FB03F2FB685B081344DB
:1026B000054AA2FB03239B0918461437BD465DF863
:1026C000047B7047002F3A00D34D621080B483B072
:1026D00000AF0346FB80FB88DBB2FA88120A92B295
:1026E00093409BB201339BB218460C37BD465DF850
:1026F000047B704780B485B000AF78600B46FB70F8
:10270000FB780D4A02FB03F303F5FA730B4AA2FBB5
:1027100003239B09FB607B684FF47A7202FB03F290
:10272000FB685B081A44FB68B2FBF3F318461437E6
:10273000BD465DF8047B7047002F3A00D34D621010
:1027400080B485B000AF0346FB800023FB6000230C
:102750007B81FB88002B18D0FB88013BFB6005E0E8
:10276000FB685B08FB607B8901337B81FB6823F09E
:10277000FF03002BF4D17B891B029AB2FB689BB24A
:10278000DBB29BB213439BB200E000231846143720
:10279000BD465DF8047B704780B582B000AF03464C
:1027A000FB71FB7943F00103DBB219460020FFF710
:1027B00001FA00BF1320FFF745FA034603F00703B1
:1027C000002BF7D001210B20FFF7F4F900210020A6
:1027D000FFF7F0F9012318460837BD4680BD80B5E4
:1027E00086B000AF786000BF1320FFF72BFA0346D6
:1027F00003F00703002BF7D07B68002B05D11E20C8
:10280000FFF73EFA0346FB8234E007F108030C228F
:1028100019461420FFF764FA3B7ADB08DAB27B68CA
:102820001A72BB7A1B021AB2FB7A1BB213431BB299
:102830009AB27B68DA80BB7B1B021AB2FB7B1BB2AD
:1028400013431BB29AB27B685A803B7C1B021AB2BC
:102850007B7C1BB213431BB29AB27B689A80BB7C11
:102860001B021AB2FB7C1BB213431BB2FB827B68B8
:10287000FA8A1A8001210B20FFF79CF9FB8A18467F
:102880001837BD4680BD000080B582B000AF7860CB
:1028900001218020FFF78EF90121FF20FFF78AF93F
:1028A00000210020FFF786F9134B1B781946912071
:1028B000FFF780F901210020FFF77CF90021FF20BC
:1028C000FFF778F900218020FFF774F9012100203B
:1028D000FFF770F900BF0020FFF7B4F9034603F0DB
:1028E0000103002BF7D17868FFF779FF03461846FC
:1028F0000837BD4680BD00BF44050020DFF834D056
:102900000D480E490E4A002302E0D458C450043347
:10291000C4188C42F9D30B4A0B4C002301E013601E
:102920000432A242FBD3FEF729FF03F06FFFFEF74C
:10293000F9FB70470000022000000020E8010020A1
:10294000249A0008E801002060050020FEE700004E
:1029500080B500AF0E4B1B680D4A43F40073136043
:102960000B4B1B680A4A43F480631360084B1B68D7
:10297000074A43F480731360032000F02BF9002012
:1029800000F008F8FEF7D4FD0023184680BD00BF14
:10299000003C024080B582B000AF7860124B1A68EC
:1029A000124B1B7819464FF47A73B3FBF1F3B2FB69
:1029B000F3F3184600F043F90346002B01D001233E
:1029C0000EE07B680F2B0AD8002279684FF0FF30A9
:1029D00000F00BF9064A7B681360002300E0012336
:1029E00018460837BD4680BD0000002014000020B6
:1029F0001000002080B400AF064B1B781A46064B2F
:102A00001B681344044A136000BFBD465DF8047B95
:102A1000704700BF140000204C05002080B400AFB8
:102A2000034B1B681846BD465DF8047B704700BF2A
:102A30004C05002080B485B000AF78607B6803F05F
:102A40000703FB600C4BDB68BB60BA684FF6FF0303
:102A50001340BB60FB681A02BB68134343F0BF63BB
:102A600043F40033BB60044ABB68D36000BF143733
:102A7000BD465DF8047B704700ED00E080B400AF18
:102A8000044BDB681B0A03F007031846BD465DF8DC
:102A9000047B704700ED00E080B483B000AF0346D4
:102AA000FB7197F90730002B0BDBFB7903F01F025A
:102AB000074997F907305B09012000FA02F241F853
:102AC000232000BF0C37BD465DF8047B704700BF74
:102AD00000E100E080B483B000AF03463960FB71D1
:102AE00097F90730002B0ADB3B68DAB20C4997F9FB
:102AF00007301201D2B20B4483F800230AE03B688E
:102B0000DAB20849FB7903F00F03043B1201D2B299
:102B10000B441A7600BF0C37BD465DF8047B704746
:102B200000E100E000ED00E080B489B000AFF860A3
:102B3000B9607A60FB6803F00703FB61FB69C3F1CE
:102B40000703042B28BF0423BB61FB690433062B56
:102B500002D9FB69033B00E000237B614FF0FF32A9
:102B6000BB6902FA03F3DA43BB681A407B699A40F7
:102B70004FF0FF317B6901FA03F3D9437B680B40C7
:102B8000134318462437BD465DF8047B70470000A8
:102B900080B582B000AF78607B68013BB3F1807F85
:102BA00001D301230FE00A4A7B68013B53600F21E8
:102BB0004FF0FF30FFF78EFF054B00229A60044B69
:102BC00007221A60002318460837BD4680BD00BFA3
:102BD00010E000E080B582B000AF78607868FFF761
:102BE00029FF00BF0837BD4680BD80B586B000AF65
:102BF0000346B9607A60FB7300237B61FFF73EFFF9
:102C000078617A68B9687869FFF78EFF024697F9AC
:102C10000F3011461846FFF75DFF00BF1837BD465D
:102C200080BD80B582B000AF0346FB7197F90730D5
:102C30001846FFF731FF00BF0837BD4680BD80B59D
:102C400082B000AF78607868FFF7A2FF03461846AD
:102C50000837BD4680BD000080B489B000AF786001
:102C6000396000237B6100233B610023BB610023AB
:102C7000FB6159E10122FB6902FA03F37B613B68C6
:102C80001B687A6913403B613A697B699A4240F05C
:102C900048813B685B6803F00303012B05D03B6868
:102CA0005B6803F00303022B30D17B689B68BB6138
:102CB000FB695B00032202FA03F3DB43BA691340AA
:102CC000BB613B68DA68FB695B0002FA03F3BA692F
:102CD0001343BB617B68BA699A607B685B68BB61C0
:102CE0000122FB6902FA03F3DB43BA691340BB61BB
:102CF0003B685B681B0903F00102FB6902FA03F3FE
:102D0000BA691343BB617B68BA695A603B685B6808
:102D100003F00303032B17D07B68DB68BB61FB69FF
:102D20005B00032202FA03F3DB43BA691340BB6181
:102D30003B689A68FB695B0002FA03F3BA691343C4
:102D4000BB617B68BA69DA603B685B6803F00303C8
:102D5000022B23D1FB69DA087B68083253F8223052
:102D6000BB61FB6903F007039B000F2202FA03F328
:102D7000DB43BA691340BB613B681A69FB6903F026
:102D800007039B0002FA03F3BA691343BB61FB69B3
:102D9000DA087B680832B96943F822107B681B683F
:102DA000BB61FB695B00032202FA03F3DB43BA69F0
:102DB0001340BB613B685B6803F00302FB695B0087
:102DC00002FA03F3BA691343BB617B68BA691A60FC
:102DD0003B685B6803F08053002B00F0A280002367
:102DE000FB60574B5B6C564A43F480435364544B2F
:102DF0005B6C03F48043FB60FB68524AFB699B08F1
:102E0000023352F82330BB61FB6903F003039B00DC
:102E10000F2202FA03F3DB43BA691340BB617B68FC
:102E2000494A934219D07B68484A934213D07B6841
:102E3000474A93420DD07B68464A934207D07B684D
:102E4000454A934201D1042308E0072306E0032307
:102E500004E0022302E0012300E00023FA6902F00B
:102E6000030292009340BA691343BB613549FB6981
:102E70009B080233BA6941F82320384B1B68BB61B9
:102E80003B69DB43BA691340BB613B685B6803F491
:102E90008033002B03D0BA693B691343BB612F4ACF
:102EA000BB6913602D4B5B68BB613B69DB43BA694F
:102EB0001340BB613B685B6803F40033002B03D015
:102EC000BA693B691343BB61244ABB695360234B16
:102ED0009B68BB613B69DB43BA691340BB613B68DC
:102EE0005B6803F48013002B03D0BA693B6913437A
:102EF000BB611A4ABB699360184BDB68BB613B69D5
:102F0000DB43BA691340BB613B685B6803F40013A1
:102F1000002B03D0BA693B691343BB610F4ABB69FD
:102F2000D360FB690133FB61FB690F2B7FF6A2AE17
:102F300000BF00BF2437BD465DF8047B704700BF6B
:102F40000038024000380140000002400004024006
:102F500000080240000C024000100240003C01400A
:102F600080B483B000AF78600B467B8013467B70E3
:102F70007B78002B03D07A887B689A6103E07B889A
:102F80001A047B689A6100BF0C37BD465DF8047B6C
:102F9000704780B485B000AF78600B467B807B685B
:102FA0005B69FB607A88FB6813401A04FB68D943AD
:102FB0007B880B401A437B689A6100BF1437BD467B
:102FC0005DF8047B7047000080B584B000AF786086
:102FD0007B68002B01D1012371E17B6893F83D30C0
:102FE000DBB2002B2CD17B68002283F83C207B686D
:102FF000774A5A657B68774A9A657B68764ADA65CC
:103000007B68764A1A667B68754A5A667B68754A99
:103010009A667B68744ADA667B68744A1A677B68CA
:10302000734A5A677B68734A9A677B68DB6F002B29
:1030300002D17B68704ADA677B68DB6F78689847F3
:103040007B68242283F83D207B681B681A687B68B4
:103050001B6822F001021A607B681B681A687B6893
:103060001B6842F400421A607B681B681A687B6820
:103070001B6822F400421A6001F058FDF8607B687A
:103080005B685E4A934207D8FB685D4A934294BFEF
:1030900001230023DBB206E0FB685A4A934294BF47
:1030A00001230023DBB2002B01D0012307E1FB68E1
:1030B000554AA2FB03239B0CBB607B681B685B68C3
:1030C00023F03F017B681B68BA680A435A607B683B
:1030D0001B681B6A23F03F017B685B68474A934289
:1030E00002D8BB68013309E0BB684FF4967202FB5B
:1030F00003F3464AA2FB03239B0901337A68126853
:103100000B4313627B681B68DB6923F44F4222F098
:10311000FF027B685B6839498B4219D8FB68591EEE
:103120007B685B685B00B1FBF3F3591C40F6FC73F2
:103130000B40002B0AD0FB68591E7B685B685B0064
:10314000B1FBF3F30133C3F30B0371E004236FE02E
:103150007B689B68002B11D1FB68581E7B685968FF
:103160000B465B000B44B0FBF3F30133C3F30B03DB
:10317000002B0CBF01230023DBB212E0FB68581EBA
:103180007B6859680B469B000B4499000B44B0FBCD
:10319000F3F30133C3F30B03002B0CBF0123002314
:1031A000DBB2002B01D0012342E07B689B68002B3F
:1031B0002ED1FB68581E7B6859680B465B000B4498
:1031C000B0FBF3F30133C3F30B0343F400432FE0ED
:1031D000653B0008793B00088D3B0008A13B0008D7
:1031E000D13B0008E53B0008F93B00080D3C000816
:1031F000213C0008B53B000849100008A0860100EA
:103200007F841E00FF083D0083DE1B43D34D621008
:10321000FB68581E7B6859680B469B000B4499005D
:103220000B44B0FBF3F30133C3F30B0343F440430C
:10323000796809681343CB617B681B681B6823F0BE
:10324000C0017B68DA697B681B6A1A437B681B686C
:103250000A431A607B681B689B6823F4034323F0CE
:10326000FF037A6811697A68D26811437A68126834
:103270000B4393607B681B68DB6823F0FF017B686E
:103280005A697B689B691A437B681B680A43DA604A
:103290007B681B681A687B681B6842F001021A6031
:1032A0007B6800221A647B68202283F83D207B68BB
:1032B00000221A637B68002283F83E200023184610
:1032C0001037BD4680BD00BF80B588B002AFF86042
:1032D000084611461A4603467B810B463B8113463E
:1032E000FB80FFF79BFB7861FB6893F83D30DBB216
:1032F000202B40F0D9807B690093192301226D496E
:10330000F86800F015FE0346002B01D00223CCE044
:10331000FB6893F83C30012B01D10223C5E0FB6828
:10332000012283F83C20FB681B681B6803F0010343
:10333000012B07D0FB681B681A68FB681B6842F00A
:1033400001021A60FB681B681A68FB681B6822F49C
:1033500000621A60FB68212283F83D20FB6840224E
:1033600083F83E20FB6800221A64FB683A6A5A62BE
:10337000FB68BA8C5A85FB685B8D9AB2FB681A852C
:10338000FB684D4ADA62F8883A8979897B6901934A
:10339000BB6A00930346F86800F04CFC0346002B20
:1033A00052D0012381E07A69B96AF86800F096FE8C
:1033B0000346002B0DD0FB681B6C042B07D1FB6868
:1033C0001B681A68FB681B6842F400721A600123CC
:1033D0006BE0FB685B6A1A78FB681B681A61FB6824
:1033E0005B6A5A1CFB685A62FB681B8D013B9AB2F0
:1033F000FB681A85FB685B8D9BB2013B9AB2FB6848
:103400005A85FB681B685B6903F00403042B1BD11E
:10341000FB681B8D002B17D0FB685B6A1A78FB6872
:103420001B681A61FB685B6A5A1CFB685A62FB687E
:103430001B8D013B9AB2FB681A85FB685B8D9BB2C2
:10344000013B9AB2FB685A85FB681B8D002BAAD101
:103450007A69B96AF86800F082FE0346002B0DD045
:10346000FB681B6C042B07D1FB681B681A68FB68A0
:103470001B6842F400721A60012316E0FB681B68A7
:103480001A68FB681B6842F400721A60FB6820220D
:1034900083F83D20FB68002283F83E20FB68002271
:1034A00083F83C20002300E0022318461837BD466D
:1034B00080BD00BF020010000000FFFF80B58CB08F
:1034C00002AFF860084611461A4603467B810B4658
:1034D0003B811346FB80FFF7A1FA7862FB6893F803
:1034E0003D30DBB2202B40F008827B6A0093192329
:1034F00001227B49F86800F01BFD0346002B01D038
:103500000223FBE1FB6893F83C30012B01D102233D
:10351000F4E1FB68012283F83C20FB681B681B6810
:1035200003F00103012B07D0FB681B681A68FB68D6
:103530001B6842F001021A60FB681B681A68FB688E
:103540001B6822F400621A60FB68222283F83D2087
:10355000FB68402283F83E20FB6800221A64FB6867
:103560003A6B5A62FB68BA8E5A85FB685B8D9AB2D9
:10357000FB681A85FB685B4ADA62F8883A897989C0
:103580007B6A0193BB6B00930346F86800F0E8FB8D
:103590000346002B01D00123B0E1FB681B8D002BFB
:1035A00013D100233B62FB681B685B693B62FB68CD
:1035B0001B689B693B623B6AFB681B681A68FB6877
:1035C0001B6842F400721A6084E1FB681B8D012BBA
:1035D0001BD1FB681B681A68FB681B6822F48062B9
:1035E0001A600023FB61FB681B685B69FB61FB6879
:1035F0001B689B69FB61FB69FB681B681A68FB68B9
:103600001B6842F400721A6064E1FB681B8D022B98
:103610001BD1FB681B681A68FB681B6822F4806278
:103620001A60FB681B681A68FB681B6842F400623A
:103630001A600023BB61FB681B685B69BB61FB68A8
:103640001B689B69BB61BB6944E100237B61FB682C
:103650001B685B697B61FB681B689B697B617B699D
:1036600038E1FB681B8D032B00F2F180FB681B8D9A
:10367000012B23D17A6AB96BF86800F0B1FD0346DB
:10368000002B01D0012339E1FB681B681A69FB6834
:103690005B6AD2B21A70FB685B6A5A1CFB685A629A
:1036A000FB681B8D013B9AB2FB681A85FB685B8D3A
:1036B0009BB2013B9AB2FB685A850BE1FB681B8DFC
:1036C000022B4ED17B6A0093BB6B00220649F8683F
:1036D00000F02EFC0346002B08D001230EE100BFB2
:1036E000020010000000FFFF04000100FB681B68DF
:1036F0001A68FB681B6842F400721A60FB681B685A
:103700001A69FB685B6AD2B21A70FB685B6A5A1C62
:10371000FB685A62FB681B8D013B9AB2FB681A85F5
:10372000FB685B8D9BB2013B9AB2FB685A85FB68D4
:103730001B681A69FB685B6AD2B21A70FB685B6A25
:103740005A1CFB685A62FB681B8D013B9AB2FB68EE
:103750001A85FB685B8D9BB2013B9AB2FB685A8568
:10376000B8E07B6A0093BB6B00226649F86800F002
:10377000DFFB0346002B01D00123BFE0FB681B6881
:103780001A68FB681B6822F480621A60FB681B6879
:103790001A69FB685B6AD2B21A70FB685B6A5A1CD2
:1037A000FB685A62FB681B8D013B9AB2FB681A8565
:1037B000FB685B8D9BB2013B9AB2FB685A857B6AC2
:1037C0000093BB6B00224F49F86800F0B1FB034641
:1037D000002B01D0012391E0FB681B681A68FB688D
:1037E0001B6842F400721A60FB681B681A69FB6868
:1037F0005B6AD2B21A70FB685B6A5A1CFB685A6239
:10380000FB681B8D013B9AB2FB681A85FB685B8DD8
:103810009BB2013B9AB2FB685A85FB681B681A6928
:10382000FB685B6AD2B21A70FB685B6A5A1CFB6861
:103830005A62FB681B8D013B9AB2FB681A85FB68D4
:103840005B8D9BB2013B9AB2FB685A8542E07A6A73
:10385000B96BF86800F0C4FC0346002B01D00123CB
:103860004CE0FB681B681A69FB685B6AD2B21A708D
:10387000FB685B6A5A1CFB685A62FB681B8D013B44
:103880009AB2FB681A85FB685B8D9BB2013B9AB2CA
:10389000FB685A85FB681B685B6903F00403042B13
:1038A00018D1FB681B681A69FB685B6AD2B21A7090
:1038B000FB685B6A5A1CFB685A62FB681B8D013B04
:1038C0009AB2FB681A85FB685B8D9BB2013B9AB28A
:1038D000FB685A85FB681B8D002B7FF4C2AEFB682A
:1038E000202283F83D20FB68002283F83E20FB68FD
:1038F000002283F83C20002300E0022318462837EA
:10390000BD4680BD0400010080B58AB002AFF860FA
:103910007A603B600B467B81FFF780F8F8610123FA
:10392000BB61FB6893F83D30DBB2202B40F0118186
:10393000FB690093192301228849F86800F0F8FA1E
:103940000346002B01D0022304E1FB6893F83C30CE
:10395000012B01D10223FDE0FB68012283F83C200A
:10396000FB681B681B6803F00103012B07D0FB6891
:103970001B681A68FB681B6842F001021A60FB684A
:103980001B681A68FB681B6822F400621A60FB68F7
:10399000242283F83D20FB6800221A64FB68704AE9
:1039A000DA62FB681B681A68FB681B6842F4807265
:1039B0001A60FB6900933B6800224FF00111F86820
:1039C00000F0B6FA0346002B0DD0FB681B681B689D
:1039D00003F48073B3F5807F03D1FB684FF400726A
:1039E0001A640323B6E07B89DBB21A46FB681B68C6
:1039F00002F0FE021A61FFF711F8F861FB681B681C
:103A00005B6903F00203022B0CBF01230023DBB22E
:103A1000FB75FB681B685B6903F48063B3F5806F1B
:103A20000CBF01230023DBB2BB7525E0FEF7F6FFD8
:103A30000246FB69D31A3A689A4202D33B68002BCC
:103A400003D1FB68A02283F83D20FB681B685B69FB
:103A500003F00203022B0CBF01230023DBB2FB7532
:103A6000FB681B685B6903F48063B3F5806F0CBF70
:103A700001230023DBB2BB75FB6893F83D30DBB25A
:103A8000A02B05D0FB7D002B02D1BB7D002BCDD020
:103A9000FB68202283F83D20FB681B685B6903F00C
:103AA0000203022B29D1FB681B681A68FB681B689C
:103AB00042F400721A6000233B61FB681B685B697B
:103AC0003B61FB681B689B693B613B69FB69009339
:103AD000192301222149F86800F02AFA0346002B35
:103AE00001D0012336E0FB68202283F83D20FB68EB
:103AF000002283F83C2000232CE0FB681B681A6836
:103B0000FB681B6842F400721A60FB681B686FF464
:103B100080625A61FB690093192301220F49F868FA
:103B200000F006FA0346002B01D0012312E0BB6926
:103B30000133BB61BA697B689A42FFF432AFFB681C
:103B4000202283F83D20FB68002283F83C200123DB
:103B500000E0022318462037BD4680BD0200100059
:103B60000000FFFF80B483B000AF786000BF0C3767
:103B7000BD465DF8047B704780B483B000AF7860C9
:103B800000BF0C37BD465DF8047B704780B483B03E
:103B900000AF786000BF0C37BD465DF8047B70470E
:103BA00080B483B000AF786000BF0C37BD465DF8CD
:103BB000047B704780B483B000AF78600B46FB7025
:103BC00013463B8000BF0C37BD465DF8047B704751
:103BD00080B483B000AF786000BF0C37BD465DF89D
:103BE000047B704780B483B000AF786000BF0C37AF
:103BF000BD465DF8047B704780B483B000AF786049
:103C000000BF0C37BD465DF8047B704780B483B0BD
:103C100000AF786000BF0C37BD465DF8047B70478D
:103C200080B483B000AF786000BF0C37BD465DF84C
:103C3000047B704780B588B002AFF8600846114633
:103C40001A4603467B810B463B811346FB80FB688B
:103C50001B681A68FB681B6842F480721A607B6AF2
:103C600000933B6A00224FF00111F86800F060F900
:103C70000346002B0DD0FB681B681B6803F48073A0
:103C8000B3F5807F03D1FB684FF400721A640323FD
:103C90005FE07B89DBB21A46FB681B6802F0FE021C
:103CA0001A617B6A3A6A2D49F86800F098F9034670
:103CB000002B01D001234CE000237B61FB681B68D3
:103CC0005B697B61FB681B689B697B617B697A6AC6
:103CD000396AF86800F002FA0346002B0DD0FB6841
:103CE0001B6C042B07D1FB681B681A68FB681B68F8
:103CF00042F400721A6001232BE0FB88012B05D1EE
:103D00003B89DAB2FB681B681A6121E03B891B0A18
:103D10009BB2DAB2FB681B681A617A6A396AF86882
:103D200000F0DCF90346002B0DD0FB681B6C042B64
:103D300007D1FB681B681A68FB681B6842F40072B5
:103D40001A60012305E03B89DAB2FB681B681A613F
:103D5000002318461837BD4680BD00BF0200010091
:103D600080B588B002AFF860084611461A4603468F
:103D70007B810B463B811346FB80FB681B681A68FE
:103D8000FB681B6842F480621A60FB681B681A6853
:103D9000FB681B6842F480721A607B6A00933B6A7E
:103DA00000224FF00111F86800F0C2F80346002B22
:103DB0000DD0FB681B681B6803F48073B3F5807F2C
:103DC00003D1FB684FF400721A640323AAE07B89D5
:103DD000DBB21A46FB681B6802F0FE021A617B6ABE
:103DE0003A6A5249F86800F0FAF80346002B01D00D
:103DF000012397E000237B61FB681B685B697B61A3
:103E0000FB681B689B697B617B697A6A396AF86821
:103E100000F064F90346002B0DD0FB681B6C042BEB
:103E200007D1FB681B681A68FB681B6842F40072C4
:103E30001A60012376E0FB88012B05D13B89DAB2B9
:103E4000FB681B681A6121E03B891B0A9BB2DAB24E
:103E5000FB681B681A617A6A396AF86800F03EF9F3
:103E60000346002B0DD0FB681B6C042B07D1FB68AD
:103E70001B681A68FB681B6842F400721A60012311
:103E800050E03B89DAB2FB681B681A617A6A396ACA
:103E9000F86800F023F90346002B0DD0FB681B6C7B
:103EA000042B07D1FB681B681A68FB681B6842F487
:103EB00000721A60012335E0FB681B681A68FB6812
:103EC0001B6842F480721A607B6A00933B6A00228E
:103ED0004FF00111F86800F02BF80346002B0DD0CD
:103EE000FB681B681B6803F48073B3F5807F03D104
:103EF000FB684FF400721A64032313E07B89DBB282
:103F000043F00103DAB2FB681B681A617B6A3A6A04
:103F10000649F86800F063F80346002B01D001233E
:103F200000E0002318461837BD4680BD020001009E
:103F300080B584B000AFF860B9603B601346FB7198
:103F400025E03B68B3F1FF3F21D0FEF767FD024655
:103F5000BB69D31A3A689A4202D33B68002B16D148
:103F6000FB6800221A63FB68202283F83D20FB686F
:103F7000002283F83E20FB681B6C43F02002FB68A4
:103F80001A64FB68002283F83C20012323E0BB680D
:103F90001B0CDBB2012B0DD1FB681B685B69DA439C
:103FA000BB6813409BB2002B0CBF01230023DBB284
:103FB0001A460CE0FB681B689B69DA43BB68134038
:103FC0009BB2002B0CBF01230023DBB21A46FB7906
:103FD0009A42B6D0002318461037BD4680BD80B542
:103FE00084B000AFF860B9607A603B6051E0FB6874
:103FF0001B685B6903F48063B3F5806F23D1FB68B2
:104000001B681A68FB681B6842F400721A60FB6840
:104010001B686FF480625A61FB6800221A63FB68B8
:10402000202283F83D20FB68002283F83E20FB68B5
:104030001B6C43F00402FB681A64FB68002283F8DF
:104040003C20012346E07B68B3F1FF3F21D0FEF71F
:10405000E5FC02463B68D31A7A689A4202D37B6831
:10406000002B16D1FB6800221A63FB68202283F81C
:104070003D20FB68002283F83E20FB681B6C43F068
:104080002002FB681A64FB68002283F83C200123AD
:1040900020E0BB681B0CDBB2012B0CD1FB681B685A
:1040A0005B69DA43BB6813409BB2002B14BF01234A
:1040B0000023DBB20BE0FB681B689B69DA43BB683B
:1040C00013409BB2002B14BF01230023DBB2002B53
:1040D0008DD1002318461037BD4680BD80B584B011
:1040E00000AFF860B9607A602DE0F86800F0CEF8B3
:1040F0000346002B01D001232DE0BB68B3F1FF3F45
:1041000021D0FEF78BFC02467B68D31ABA689A422C
:1041100002D3BB68002B16D1FB6800221A63FB6830
:10412000202283F83D20FB68002283F83E20FB68B4
:104130001B6C43F02002FB681A64FB68002283F8C2
:104140003C20012307E0FB681B685B6903F08003E8
:10415000802BCAD1002318461037BD4680BD80B5DC
:1041600084B000AFF860B9607A602DE0F86800F0C4
:104170008DF80346002B01D001232DE0BB68B3F17D
:10418000FF3F21D0FEF74AFC02467B68D31ABA688B
:104190009A4202D3BB68002B16D1FB6800221A6337
:1041A000FB68202283F83D20FB68002283F83E2034
:1041B000FB681B6C43F02002FB681A64FB6800225A
:1041C00083F83C20012307E0FB681B685B6903F070
:1041D0000403042BCAD1002318461037BD4680BD06
:1041E00080B584B000AFF860B9607A6042E0FB68E7
:1041F0001B685B6903F01003102B19D1FB681B6867
:104200006FF010025A61FB6800221A63FB682022DB
:1042100083F83D20FB68002283F83E20FB681A6C7F
:10422000FB681A64FB68002283F83C20012329E024
:10423000FEF7F4FB02467B68D31ABA689A4202D3AF
:10424000BB68002B16D1FB6800221A63FB68202292
:1042500083F83D20FB68002283F83E20FB681B6C3E
:1042600043F02002FB681A64FB68002283F83C20BC
:10427000012307E0FB681B685B6903F04003402BE8
:10428000B5D1002318461037BD4680BD80B483B039
:1042900000AF78607B681B685B6903F48063B3F5EB
:1042A000806F1BD17B681B686FF480625A617B68EA
:1042B00000221A637B68202283F83D207B6800225D
:1042C00083F83E207B681B6C43F004027B681A6411
:1042D0007B68002283F83C20012300E0002318467D
:1042E0000C37BD465DF8047B7047000080B586B092
:1042F00000AF78607B68002B01D1012364E27B680A
:104300001B6803F00103002B75D0A34B9B6803F0DF
:104310000C03042B0CD0A04B9B6803F00C03082B60
:1043200012D19D4B5B6803F48003B3F5800F0BD172
:10433000994B1B6803F40033002B5BD07B685B68F0
:10434000002B57D101233FE27B685B68B3F5803FC8
:1043500006D1914B1B68904A43F4803313601DE0F3
:104360007B685B68B3F5A02F0CD18B4B1B688A4A26
:1043700043F480231360884B1B68874A43F48033DF
:1043800013600BE0844B1B68834A23F48033136073
:10439000814B1B68804A23F4802313607B685B6831
:1043A000002B13D0FEF73AFB386108E0FEF736FB2E
:1043B00002463B69D31A642B01D9032304E2764BEE
:1043C0001B6803F40033002BF0D014E0FEF726FB4B
:1043D000386108E0FEF722FB02463B69D31A642BE2
:1043E00001D90323F0E16C4B1B6803F40033002B6D
:1043F000F0D100E000BF7B681B6803F00203002BD4
:1044000063D0654B9B6803F00C03002B0BD0624B11
:104410009B6803F00C03082B1CD15F4B5B6803F413
:104420008003002B16D15C4B1B6803F00203002BAA
:1044300005D07B68DB68012B01D00123C4E1564B1A
:104440001B6823F0F8027B681B69DB0052491343A9
:104450000B603AE07B68DB68002B20D04F4B0122D9
:104460001A60FEF7DBFA386108E0FEF7D7FA024679
:104470003B69D31A022B01D90323A5E1464B1B68E4
:1044800003F00203002BF0D0434B1B6823F0F8022B
:104490007B681B69DB00404913430B6015E03F4B11
:1044A00000221A60FEF7BAFA386108E0FEF7B6FAA1
:1044B00002463B69D31A022B01D9032384E1364B10
:1044C0001B6803F00203002BF0D17B681B6803F02C
:1044D0000803002B30D07B685B69002B16D0304B73
:1044E00001221A60FEF79AFA386108E0FEF796FAA0
:1044F00002463B69D31A022B01D9032364E1264B00
:104500005B6F03F00203002BF0D015E0244B002278
:104510001A60FEF783FA386108E0FEF77FFA024678
:104520003B69D31A022B01D903234DE11A4B5B6F70
:1045300003F00203002BF0D17B681B6803F0040337
:10454000002B00F0A0800023FB75134B1B6C03F0C5
:104550008053002B0FD10023BB600F4B1B6C0E4A06
:1045600043F0805313640C4B1B6C03F08053BB600F
:10457000BB680123FB750B4B1B6803F48073002B96
:1045800021D1084B1B68074A43F480731360FEF780
:1045900045FA386111E000BF003802400000474290
:1045A000800E474200700040FEF738FA02463B6931
:1045B000D31A022B01D9032306E1854B1B6803F4B0
:1045C0008073002BF0D07B689B68012B06D1814B58
:1045D0001B6F804A43F0010313671CE07B689B68F4
:1045E000052B0CD17B4B1B6F7A4A43F004031367F6
:1045F000784B1B6F774A43F0010313670BE0754B51
:104600001B6F744A23F001031367724B1B6F714ACF
:1046100023F0040313677B689B68002B15D0FEF71B
:10462000FDF938610AE0FEF7F9F902463B69D31A51
:1046300041F28832934201D90323C5E0654B1B6FD9
:1046400003F00203002BEED014E0FEF7E7F9386127
:104650000AE0FEF7E3F902463B69D31A41F28832D9
:10466000934201D90323AFE05A4B1B6F03F00203BF
:10467000002BEED1FB7D012B05D1564B1B6C554A0F
:1046800023F0805313647B689B69002B00F09B80B0
:10469000504B9B6803F00C03082B5CD07B689B6934
:1046A000022B41D14C4B00221A60FEF7B7F938615A
:1046B00008E0FEF7B3F902463B69D31A022B01D991
:1046C000032381E0434B1B6803F00073002BF0D100
:1046D0007B68DA697B681B6A1A437B685B6A9B01AB
:1046E0001A437B689B6A5B08013B1B041A437B6887
:1046F000DB6A1B06374913434B60374B01221A60B4
:10470000FEF78CF9386108E0FEF788F902463B694C
:10471000D31A022B01D9032356E02E4B1B6803F05A
:104720000073002BF0D04EE02B4B00221A60FEF7F6
:1047300075F9386108E0FEF771F902463B69D31A52
:10474000022B01D903233FE0224B1B6803F00073C7
:10475000002BF0D137E07B689B69012B01D101234D
:1047600032E01C4B5B68FB607B689B69012B28D0A7
:10477000FB6803F480027B68DB699A4221D1FB6805
:1047800003F03F027B681B6A9A421AD1FA6847F627
:10479000C07313407A68526A9201934211D1FB6848
:1047A00003F440327B689B6A5B08013B1B049A421E
:1047B00007D1FB6803F070627B68DB6A1B069A42D4
:1047C00001D0012300E0002318461837BD4680BD04
:1047D00000700040003802406000474280B584B05D
:1047E00000AF786039607B68002B01D10123CCE0F9
:1047F000684B1B6803F007033A689A420CD9654B73
:104800003A68D2B21A70634B1B6803F007033A6828
:104810009A4201D00123B8E07B681B6803F00203D1
:10482000002B20D07B681B6803F00403002B05D00D
:10483000594B9B68584A43F4E05393607B681B686C
:1048400003F00803002B05D0534B9B68524A43F4F6
:1048500060439360504B9B6823F0F0027B689B6839
:104860004D4913438B607B681B6803F00103002BE9
:1048700044D07B685B68012B07D1474B1B6803F46E
:104880000033002B19D101237FE07B685B68022B8A
:1048900003D07B685B68032B07D13F4B1B6803F099
:1048A0000073002B09D101236FE03B4B1B6803F021
:1048B0000203002B01D1012367E0374B9B6823F0F3
:1048C00003027B685B68344913438B60FEF7A6F8EC
:1048D000F8600AE0FEF7A2F80246FB68D31A41F23C
:1048E0008832934201D903234FE02B4B9B6803F09E
:1048F0000C027B685B689B009A42EBD1254B1B68DE
:1049000003F007033A689A420CD2224B3A68D2B2BB
:104910001A70204B1B6803F007033A689A4201D0D3
:10492000012332E07B681B6803F00403002B08D0EE
:10493000194B9B6823F4E0527B68DB6816491343EC
:104940008B607B681B6803F00803002B09D0124BB7
:104950009B6823F460427B681B69DB000E491343AC
:104960008B6000F021F802460B4B9B681B0903F09B
:104970000F030A49CB5C22FA03F3094A1360094B7F
:104980001B681846FEF706F8002318461037BD4688
:1049900080BD00BF003C0240003802401C96000869
:1049A0000000002010000020B0B584B000AF00214E
:1049B00079600021F960002139600021B960524915
:1049C000896801F00C0108290DD0082900F29480B3
:1049D000002902D0042903D08EE04C4BBB608EE04E
:1049E0004B4BBB608BE04849496801F03F0179605F
:1049F0004549496801F48001002924D042494968A9
:104A0000890908464FF0000140F2FF144FF00005FD
:104A100000EA040201EA05033D4901FB03F000211D
:104A200001FB02F144183A49A2FB0101631819463F
:104A30007B681A464FF00003FCF7BEF802460B46AF
:104A40001346FB604AE0304B5B689B091A464FF007
:104A5000000340F2FF104FF0000102EA000403EAF5
:104A60000105204629464FF000024FF000034B019C
:104A700043EAD063420110461946001B61EB050171
:104A80004FF000024FF000038B0143EA9063820174
:104A9000121A63EB01034FF000004FF00001D90040
:104AA00041EA5271D00002460B46121945EB03034E
:104AB0004FF000004FF00001990241EA925190023C
:104AC00002460B46104619467B681A464FF0000313
:104AD000FCF772F802460B461346FB600A4B5B6814
:104AE0001B0C03F0030301335B003B60FA683B6877
:104AF000B2FBF3F3BB6002E0044BBB6000BFBB68DA
:104B000018461037BD46B0BD003802400024F400FE
:104B100040787D0180B400AF034B1B681846BD464A
:104B20005DF8047B704700BF0000002080B500AF37
:104B3000FFF7F0FF0246054B9B689B0A03F0070353
:104B40000349CB5C22FA03F3184680BD00380240CB
:104B50002C96000880B500AFFFF7DCFF0246054B3E
:104B60009B685B0B03F007030349CB5C22FA03F35A
:104B7000184680BD003802402C96000880B586B0EB
:104B800000AF786000237B6100233B617B681B687A
:104B900003F00103002B05D17B681B6803F00403BD
:104BA000002B38D0684B00221A60FDF737FF786180
:104BB00008E0FDF733FF02467B69D31A022B01D9C7
:104BC0000323BDE0614B1B6803F00063002BF0D1B1
:104BD0007B685A687B689B689B011A437B68DB682B
:104BE0001B075A491343C1F88430574B01221A60FE
:104BF000FDF714FF786108E0FDF710FF02467B69BE
:104C0000D31A022B01D903239AE0504B1B6803F0FF
:104C10000063002BF0D07B681B6803F00203002BBD
:104C200000F083800023FB60484B1B6C474A43F035
:104C300080531364454B1B6C03F08053FB60FB688F
:104C4000434B1B68424A43F480731360FDF7E6FE52
:104C5000786108E0FDF7E2FE02467B69D31A022B79
:104C600001D903236CE03A4B1B6803F48073002BDB
:104C7000F0D0364B1B6F03F440733B613B69002B54
:104C80002FD07B681B6903F440733A699A4228D09D
:104C90002E4B1B6F23F440733B612E4B01221A6095
:104CA0002C4B00221A60294A3B691367274B1B6F64
:104CB00003F00103012B14D1FDF7B0FE78610AE087
:104CC000FDF7ACFE02467B69D31A41F2883293426B
:104CD00001D9032334E01D4B1B6F03F00203002BAB
:104CE000EED07B681B6903F44073B3F5407F0DD1B0
:104CF000164B9B6823F4F8127B681B6923F0704302
:104D000023F44073114913438B6005E00F4B9B68FC
:104D10000E4A23F4F81393600C4B1A6F7B681B69DF
:104D2000C3F30B03094913430B677B681B6803F04C
:104D30000803002B03D07B681A7D074B1A60002301
:104D400018461837BD4680BD68004742003802400B
:104D500000700040400E4742E011474280B582B0EB
:104D600000AF78607B68002B01D1012383E07B6872
:104D70005B7FDBB2002B05D17B6800221A77786855
:104D8000FCF7C0FB7B6802225A777B681B68CA224B
:104D90005A627B681B6853225A62786800F097F861
:104DA0000346002B08D07B681B68FF225A627B6891
:104DB00004225A7701235EE07B681B689B687A684F
:104DC000126823F4E00323F0400393607B681B68C0
:104DD00099687B685A687B681B691A437B685B69C2
:104DE0001A437B681B680A439A607B681B687A6871
:104DF000D2681A617B681B6819697B689B681A0412
:104E00007B681B680A431A617B681B68DA687B68E9
:104E10001B6822F08002DA607B681B689B6803F0E5
:104E20002003002B0ED1786800F029F80346002BF0
:104E300008D07B681B68FF225A627B6804225A777D
:104E4000012318E07B681B681A6C7B681B6822F4DE
:104E500080221A647B681B68196C7B689A697B687E
:104E60001B680A431A647B681B68FF225A627B68CE
:104E700001225A77002318460837BD4680BD80B509
:104E800084B000AF78600023FB607B681B68DA6841
:104E90007B681B6822F0A002DA60FDF7BFFDF860B6
:104EA00009E0FDF7BBFD0246FB68D31AB3F57A7F34
:104EB00001D9032307E07B681B68DB6803F020034C
:104EC000002BEED0002318461037BD4680BD80B5BC
:104ED00084B000AF78600023FB607B681B68DB68F0
:104EE00003F04003002B19D17B681B684FF0FF32A1
:104EF000DA60FDF793FDF86009E0FDF78FFD0246EB
:104F0000FB68D31AB3F57A7F01D9032307E07B68E6
:104F10001B68DB6803F04003002BEED0002318462B
:104F20001037BD4680BD000080B582B000AF78600C
:104F30007B68002B01D101234CE07B6893F83D3066
:104F4000DBB2002B11D17B68002283F83C2078680B
:104F500000F08EFF7B689B6C002B02D17B681F4AA0
:104F60009A647B689B6C786898477B68022283F818
:104F70003D207B681A687B6804331946104600F0B0
:104F8000ABFC7B68012283F846207B68012283F812
:104F90003E207B68012283F83F207B68012283F852
:104FA00040207B68012283F841207B68012283F83E
:104FB00042207B68012283F843207B68012283F82A
:104FC00044207B68012283F845207B68012283F816
:104FD0003D20002318460837BD4680BDC51900088E
:104FE00080B485B000AF78607B6893F83D30DBB269
:104FF000012B01D0012344E07B68022283F83D208D
:105000007B681B68DA687B681B6842F00102DA6023
:105010007B681B681E4A934218D07B681B68B3F1FB
:10502000804F13D07B681B681A4A93420ED07B686E
:105030001B68194A934209D07B681B68174A934240
:1050400004D07B681B68164A934211D17B681B68A9
:105050009B6803F00703FB60FB68062B10D07B689E
:105060001B681A687B681B6842F001021A6007E03F
:105070007B681B681A687B681B6842F001021A6033
:10508000002318461437BD465DF8047B704700BF07
:10509000000001400004004000080040000C0040F7
:1050A0000040014080B582B000AF78607B68002B83
:1050B00001D101234CE07B6893F83D30DBB2002B3B
:1050C00011D17B68002283F83C20786800F0D0FE84
:1050D0007B681B6E002B02D17B681F4A1A667B68B7
:1050E0001B6E786898477B68022283F83D207B68B6
:1050F0001A687B6804331946104600F0EDFB7B68A4
:10510000012283F846207B68012283F83E207B68D9
:10511000012283F83F207B68012283F840207B68CE
:10512000012283F841207B68012283F842207B68BA
:10513000012283F843207B68012283F844207B68A6
:10514000012283F845207B68012283F83D2000235B
:1051500018460837BD4680BD5D51000880B483B055
:1051600000AF786000BF0C37BD465DF8047B704728
:1051700080B584B000AF786039603B68002B09D1FE
:105180007B6893F83E30DBB2012B14BF0123002370
:10519000DBB222E03B68042B09D17B6893F83F30F7
:1051A000DBB2012B14BF01230023DBB215E03B6807
:1051B000082B09D17B6893F84030DBB2012B14BF78
:1051C00001230023DBB208E07B6893F84130DBB2B7
:1051D000012B14BF01230023DBB2002B01D00123DC
:1051E00068E03B68002B04D17B68022283F83E20F4
:1051F00013E03B68042B04D17B68022283F83F2034
:105200000BE03B68082B04D17B68022283F8402026
:1052100003E07B68022283F841207B681B6801223F
:105220003968184600F0FEFD7B681B68234A9342EC
:1052300007D17B681B685A6C7B681B6842F400428C
:105240005A647B681B681D4A934218D07B681B68B0
:10525000B3F1804F13D07B681B68194A93420ED07C
:105260007B681B68174A934209D07B681B68164A03
:10527000934204D07B681B68144A934211D17B6827
:105280001B689B6803F00703FB60FB68062B10D0CC
:105290007B681B681A687B681B6842F001021A6011
:1052A00007E07B681B681A687B681B6842F0010294
:1052B0001A60002318461037BD4680BD000001402B
:1052C0000004004000080040000C00400040014085
:1052D00080B582B000AF78607B681B681B6903F003
:1052E0000203022B28D17B681B68DB6803F00203F2
:1052F000022B21D17B681B686FF002021A617B6868
:1053000001221A777B681B689B6903F00303002B5B
:1053100005D07B68D3F890307868984709E07B68BF
:10532000D3F89830786898477B68D3F89C307868D1
:1053300098477B6800221A777B681B681B6903F01B
:105340000403042B28D17B681B68DB6803F004038B
:10535000042B21D17B681B686FF004021A617B6803
:1053600002221A777B681B689B6903F44073002B49
:1053700005D07B68D3F890307868984709E07B685F
:10538000D3F89830786898477B68D3F89C30786871
:1053900098477B6800221A777B681B681B6903F0BB
:1053A0000803082B28D17B681B68DB6803F008031F
:1053B000082B21D17B681B686FF008021A617B689B
:1053C00004221A777B681B68DB6903F00303002B58
:1053D00005D07B68D3F890307868984709E07B68FF
:1053E000D3F89830786898477B68D3F89C30786811
:1053F00098477B6800221A777B681B681B6903F05B
:105400001003102B28D17B681B68DB6803F01003A6
:10541000102B21D17B681B686FF010021A617B682A
:1054200008221A777B681B68DB6903F44073002B42
:1054300005D07B68D3F890307868984709E07B689E
:10544000D3F89830786898477B68D3F89C307868B0
:1054500098477B6800221A777B681B681B6903F0FA
:105460000103012B10D17B681B68DB6803F001038B
:10547000012B09D17B681B686FF001021A617B6800
:10548000D3F88030786898477B681B681B6903F005
:105490008003802B10D17B681B68DB6803F08003DE
:1054A000802B09D17B681B686FF080021A617B68D2
:1054B000D3F8B030786898477B681B681B6903F0A5
:1054C0004003402B10D17B681B68DB6803F040036E
:1054D000402B09D17B681B686FF040021A617B6822
:1054E000D3F88830786898477B681B681B6903F09D
:1054F0002003202B10D17B681B68DB6803F020039E
:10550000202B09D17B681B686FF020021A617B6831
:10551000D3F8A8307868984700BF0837BD4680BDEB
:1055200080B584B000AFF860B9607A60FB6893F82A
:105530003C30012B01D10223ACE0FB68012283F84F
:105540003C207B680C2B00F29F8001A252F823F0D4
:1055500085550008895600088956000889560008B4
:10556000C555000889560008895600088956000864
:105570000756000889560008895600088956000811
:1055800047560008FB681B68B968184600F024FA03
:10559000FB681B689A69FB681B6842F008029A6105
:1055A000FB681B689A69FB681B6822F004029A6119
:1055B000FB681B689969BB681A69FB681B680A432A
:1055C0009A6162E0FB681B68B968184600F06AFAE5
:1055D000FB681B689A69FB681B6842F400629A6169
:1055E000FB681B689A69FB681B6822F480629A61F9
:1055F000FB681B689969BB681B691A02FB681B681A
:105600000A439A6141E0FB681B68B968184600F0DC
:10561000B5FAFB681B68DA69FB681B6842F0080290
:10562000DA61FB681B68DA69FB681B6822F0040218
:10563000DA61FB681B68D969BB681A69FB681B687B
:105640000A43DA6121E0FB681B68B968184600F07C
:10565000FFFAFB681B68DA69FB681B6842F40062AA
:10566000DA61FB681B68DA69FB681B6822F48062F8
:10567000DA61FB681B68D969BB681B691A02FB68A1
:105680001B680A43DA6100E000BFFB68002283F870
:105690003C20002318461037BD4680BD80B584B03D
:1056A00000AF786039607B6893F83C30012B01D102
:1056B0000223B3E07B68012283F83C207B6802224E
:1056C00083F83D207B681B689B68FB60FB6823F0C8
:1056D0007703FB60FB6823F47F43FB607B681B68F8
:1056E000FA689A603B681B68B3F5005F3ED0B3F57B
:1056F000005F00F28780B3F5805F00F08580B3F52E
:10570000805F7FD8702B1AD0702B7BD8602B50D045
:10571000602B77D8502B3CD0502B73D8402B58D0CF
:10572000402B6FD8302B64D0302B6BD8202B60D01F
:10573000202B67D8002B5CD0102B5AD062E07B68FE
:1057400018683B6899683B685A683B68DB6800F0FA
:1057500049FB7B681B689B68FB60FB6843F0770331
:10576000FB607B681B68FA689A604EE07B6818688B
:105770003B6899683B685A683B68DB6800F032FB1D
:105780007B681B689A687B681B6842F480429A6059
:105790003BE07B6818683B6859683B68DB681A46E1
:1057A00000F0A6FA7B681B685021184600F0FFFA4B
:1057B0002BE07B6818683B6859683B68DB681A46D1
:1057C00000F0C5FA7B681B686021184600F0EFFA0C
:1057D0001BE07B6818683B6859683B68DB681A46C1
:1057E00000F086FA7B681B684021184600F0DFFA5B
:1057F0000BE07B681A683B681B681946104600F08E
:10580000D6FA02E000BF00E000BF7B68012283F807
:105810003D207B68002283F83C2000231846103787
:10582000BD4680BD80B483B000AF786000BF0C3748
:10583000BD465DF8047B704780B483B000AF7860EC
:1058400000BF0C37BD465DF8047B704780B483B061
:1058500000AF786000BF0C37BD465DF8047B704731
:1058600080B483B000AF786000BF0C37BD465DF8F0
:10587000047B704780B483B000AF786000BF0C3702
:10588000BD465DF8047B704780B483B000AF78609C
:1058900000BF0C37BD465DF8047B704780B483B011
:1058A00000AF786000BF0C37BD465DF8047B7047E1
:1058B00080B483B000AF786000BF0C37BD465DF8A0
:1058C000047B704780B483B000AF786000BF0C37B2
:1058D000BD465DF8047B704780B485B000AF78604A
:1058E00039607B681B68FB607B68344A93420FD049
:1058F0007B68B3F1804F0BD07B68314A934207D06D
:105900007B68304A934203D07B682F4A934208D188
:10591000FB6823F07003FB603B685B68FA68134325
:10592000FB607B68254A93421BD07B68B3F1804FB4
:1059300017D07B68224A934213D07B68214A934256
:105940000FD07B68204A93420BD07B681F4A93425A
:1059500007D07B681E4A934203D07B681D4A93425E
:1059600008D1FB6823F44073FB603B68DB68FA688E
:105970001343FB60FB6823F080023B685B691343C1
:10598000FB607B68FA681A603B689A687B68DA6239
:105990003B681A687B689A627B68084A934203D125
:1059A0003B681A697B681A637B6801225A6100BFF1
:1059B0001437BD465DF8047B704700BF000001400E
:1059C0000004004000080040000C0040004001407E
:1059D000004401400048014080B487B000AF7860C7
:1059E00039607B681B6A23F001027B681A627B685E
:1059F0001B6A7B617B685B683B617B689B69FB60C2
:105A0000FB6823F07003FB60FB6823F00303FB607B
:105A10003B681B68FA681343FB607B6923F0020351
:105A20007B613B689B687A6913437B617B681C4A96
:105A300093420CD17B6923F008037B613B68DB68F0
:105A40007A6913437B617B6923F004037B617B6884
:105A5000134A934211D13B6923F480733B613B6944
:105A600023F400733B613B685B693A6913433B6114
:105A70003B689B693A6913433B617B683A695A60AA
:105A80007B68FA689A613B685A687B685A637B68EE
:105A90007A691A6200BF1C37BD465DF8047B704707
:105AA0000000014080B487B000AF786039607B6847
:105AB0001B6A23F010027B681A627B681B6A7B6199
:105AC0007B685B683B617B689B69FB60FB6823F4D8
:105AD000E043FB60FB6823F44073FB603B681B689A
