:020000040800F2
:1000000000000220B13300085D1E0008631E0008D6
:10001000691E00086F1E0008751E00080000000021
:100020000000000000000000000000007B1E00082F
:10003000891E000800000000971E0008A51E000889
:1000400001340008013400080134000801340008BC
:1000500001340008013400080134000801340008AC
:10006000013400080134000801340008013400089C
:10007000013400080134000801340008013400088C
:1000800001340008013400080134000800000000B9
:100090000000000000000000000000000134000823
:1000A00001340008B11E00080134000801340008C2
:1000B000013400080134000801340008013400084C
:1000C000013400080134000801340008013400083C
:1000D0000134000801340008013400080000000069
:1000E0000134000801340008013400080000000059
:1000F00000000000000000000000000001340008C3
:100100000000000001340008013400080134000838
:1001100000000000000000000000000000000000DF
:1001200001340008013400080134000801340008DB
:100130000134000800000000000000000000000082
:100140000000000000000000000000000134000872
:1001500001340008013400080134000801340008AB
:100160000134000801340008000000000000000015
:10017000000000000000000000000000000000007F
:100180000000000001340008000000000000000032
:080190000134000801340008ED
:1001A00010B5054C237833B9044B13B10448AFF3B1
:1001B00000800123237010BD2402002000000000F5
:1001C000FC9E000808B5034B1BB103490348AFF37D
:1001D000008008BD0000000028020020FC9E0008EE
:1001E000034613F8012B002AFBD1181A0138704777
:1001F00001F0FF01102A2BDB10F0070F08D010F8D8
:10020000013B013A8B422DD010F0070F42B3F6D1DB
:10021000F0B441EA012141EA014122F007047FF0F4
:1002200000070023F0E80256083C85EA010586EA4B
:10023000010685FA47F5A3FA87F586FA47F6A5FA87
:1002400087F68EB9EED1F0BC01F0FF0102F0070293
:1002500032B110F8013B013A83EA010313B1F8D13E
:100260000020704701387047002D06BF354603381F
:10027000073815F0010F07D1013015F4807F02BF58
:10028000013015F4C03F0130F0BC0138704700BFA9
:1002900081F0004102E000BF83F0004330B54FEA37
:1002A00041044FEA430594EA050F08BF90EA020FA4
:1002B0001FBF54EA000C55EA020C7FEA645C7FEA37
:1002C000655C00F0E2804FEA5454D4EB5555B8BF5A
:1002D0006D420CDD2C4480EA020281EA030382EACB
:1002E000000083EA010180EA020281EA0303362D5D
:1002F00088BF30BD11F0004F4FEA01314FF4801C30
:100300004CEA113102D0404261EB410113F0004F41
:100310004FEA03334CEA133302D0524263EB4303F8
:1003200094EA050F00F0A780A4F10104D5F1200E96
:100330000DDB02FA0EFC22FA05F2801841F10001F1
:1003400003FA0EF2801843FA05F359410EE0A5F1C5
:1003500020050EF1200E012A03FA0EFC28BF4CF0F6
:10036000020C43FA05F3C01851EBE37101F00045AC
:1003700007D54FF0000EDCF1000C7EEB00006EEBB9
:100380000101B1F5801F1BD3B1F5001F0CD3490843
:100390005FEA30004FEA3C0C04F101044FEA44529A
:1003A00012F5800F80F09A80BCF1004F08BF5FEA21
:1003B000500C50F1000041EB045141EA050130BD01
:1003C0005FEA4C0C404141EB0101013C28BFB1F513
:1003D000801FE9D291F0000F04BF01460020B1FA5E
:1003E00081F308BF2033A3F10B03B3F120020CDA31
:1003F0000C3208DD02F1140CC2F10C0201FA0CF00F
:1004000021FA02F10CE002F11402D8BFC2F1200C73
:1004100001FA02F120FA0CFCDCBF41EA0C01904029
:10042000E41AA2BF01EB0451294330BD6FEA040472
:100430001F3C1CDA0C340EDC04F11404C4F120025D
:1004400020FA04F001FA02F340EA030021FA04F36F
:1004500045EA030130BDC4F10C04C4F1200220FAC6
:1004600002F001FA04F340EA0300294630BD21FA04
:1004700004F0294630BD94F0000F83F4801306BFCA
:1004800081F480110134013D4EE77FEA645C18BFBE
:100490007FEA655C29D094EA050F08BF90EA020F55
:1004A00005D054EA000C04BF1946104630BD91EA4D
:1004B000030F1EBF0021002030BD5FEA545C05D150
:1004C0004000494128BF41F0004130BD14F580048F
:1004D0003CBF01F5801130BD01F0004545F0FE4103
:1004E00041F470014FF0000030BD7FEA645C1ABF38
:1004F000194610467FEA655C1CBF0B46024650EA6F
:10050000013406BF52EA033591EA030F41F400219A
:1005100030BD00BF90F0000F04BF0021704730B520
:100520004FF4806404F132044FF000054FF00001F5
:1005300050E700BF90F0000F04BF0021704730B5B6
:100540004FF4806404F1320410F0004548BF40428B
:100550004FF000013EE700BF42004FEAE2014FEAE0
:1005600031014FEA02701FBF12F07F4393F07F4FBB
:1005700081F06051704732F07F4208BF704793F0BE
:100580007F4F04BF41F40021704730B54FF46074D1
:1005900001F0004521F000411CE700BF50EA0102D4
:1005A00008BF704730B54FF000050AE050EA01027D
:1005B00008BF704730B511F0004502D5404261EBED
:1005C00041014FF4806404F132045FEA915C3FF42E
:1005D000D8AE4FF003025FEADC0C18BF03325FEACB
:1005E000DC0C18BF033202EBDC02C2F1200300FA7C
:1005F00003FC20FA02F001FA03FE40EA0E0021FAA1
:1006000002F11444BDE600BF70B54FF0FF0C4CF48E
:10061000E06C1CEA11541DBF1CEA135594EA0C0F40
:1006200095EA0C0F00F0DEF82C4481EA030621EA7B
:100630004C5123EA4C5350EA013518BF52EA0335B6
:1006400041F4801143F4801338D0A0FB02CE4FF068
:100650000005E1FB02E506F00042E0FB03E54FF098
:100660000006E1FB03569CF0000F18BF4EF0010E90
:10067000A4F1FF04B6F5007F64F5407404D25FEA8C
:100680004E0E6D4146EB060642EAC62141EA55513F
:100690004FEAC52040EA5E504FEACE2EB4F1FD0C81
:1006A00088BFBCF5E06F1ED8BEF1004F08BF5FEAFF
:1006B000500E50F1000041EB045170BD06F00046B1
:1006C00046EA010140EA020081EA0301B4EB5C045E
:1006D000C2BFD4EB0C0541EA045170BD41F4801156
:1006E0004FF0000E013C00F3AB8014F1360FDEBF7B
:1006F000002001F0004170BDC4F10004203C35DA57
:100700000C341BDC04F11404C4F1200500FA05F3D9
:1007100020FA04F001FA05F240EA020001F000427A
:1007200021F0004110EBD37021FA04F642EB0601F0
:100730005EEA430E08BF20EAD37070BDC4F10C041A
:10074000C4F1200500FA04F320FA05F001FA04F2DE
:1007500040EA020001F0004110EBD37041F10001CA
:100760005EEA430E08BF20EAD37070BDC4F12005D5
:1007700000FA05F24EEA020E20FA04F301FA05F23D
:1007800043EA020321FA04F001F0004121FA04F2E5
:1007900020EA020000EBD3705EEA430E08BF20EAB5
:1007A000D37070BD94F0000F0FD101F000464000EF
:1007B00041EB010111F4801F08BF013CF7D041EA71
:1007C000060195F0000F18BF704703F00046520075
:1007D00043EB030313F4801F08BF013DF7D043EA46
:1007E0000603704794EA0C0F0CEA135518BF95EAFC
:1007F0000C0F0CD050EA410618BF52EA4306D1D183
:1008000081EA030101F000414FF0000070BD50EAA1
:10081000410606BF1046194652EA430619D094EA2B
:100820000C0F02D150EA013613D195EA0C0F05D115
:1008300052EA03361CBF104619460AD181EA030169
:1008400001F0004141F0FE4141F470014FF0000021
:1008500070BD41F0FE4141F4780170BD70B54FF0BC
:10086000FF0C4CF4E06C1CEA11541DBF1CEA13553C
:1008700094EA0C0F95EA0C0F00F0A7F8A4EB05041E
:1008800081EA030E52EA03354FEA013100F0888015
:100890004FEA03334FF0805545EA131343EA1263DE
:1008A0004FEA022245EA111545EA10654FEA002693
:1008B0000EF000419D4208BF964244F1FD0404F54C
:1008C000407402D25B084FEA3202B61A65EB0305A8
:1008D0005B084FEA32024FF480104FF4002CB6EB65
:1008E000020E75EB030E22BFB61A754640EA0C00E5
:1008F0005B084FEA3202B6EB020E75EB030E22BF25
:10090000B61A754640EA5C005B084FEA3202B6EB65
:10091000020E75EB030E22BFB61A754640EA9C0024
:100920005B084FEA3202B6EB020E75EB030E22BFF4
:10093000B61A754640EADC0055EA060E18D04FEAB2
:10094000051545EA16754FEA06164FEAC30343EA52
:1009500052734FEAC2025FEA1C1CC0D111F4801F1F
:100960000BD141EA00014FF000004FF0004CB6E718
:1009700011F4801F04BF01430020B4F1FD0C88BFB7
:10098000BCF5E06F3FF6AFAEB5EB030C04BFB6EBC2
:10099000020C5FEA500C50F1000041EB045170BDB5
:1009A0000EF0004E4EEA113114EB5C04C2BFD4EBE2
:1009B0000C0541EA045170BD41F480114FF0000E66
:1009C000013C90E645EA060E8DE60CEA135594EAE2
:1009D0000C0F08BF95EA0C0F3FF43BAF94EA0C0FE5
:1009E0000AD150EA01347FF434AF95EA0C0F7FF45A
:1009F00025AF104619462CE795EA0C0F06D152EAAE
:100A000003353FF4FDAE1046194622E750EA410691
:100A100018BF52EA43067FF4C5AE50EA41047FF4A2
:100A20000DAF52EA43057FF4EBAE12E74FF0FF3C07
:100A300006E000BF4FF0010C02E000BF4FF0010CD8
:100A40004DF804CD4FEA410C7FEA6C5C4FEA430C51
:100A500018BF7FEA6C5C1BD001B050EA410C0CBFA0
:100A600052EA430C91EA030F02BF90EA020F002002
:100A7000704710F1000F91EA030F58BF994208BF69
:100A800090422CBFD8176FEAE37040F00100704726
:100A90004FEA410C7FEA6C5C02D150EA013C07D17D
:100AA0004FEA430C7FEA6C5CD6D152EA033CD3D0C8
:100AB0005DF8040B704700BF8446104662468C46C2
:100AC0001946634600E000BF01B5FFF7B7FF0028F5
:100AD00048BF10F1000F01BD4DF808EDFFF7F4FF1E
:100AE0000CBF012000205DF808FB00BF4DF808EDA9
:100AF000FFF7EAFF34BF012000205DF808FB00BFCC
:100B00004DF808EDFFF7E0FF94BF012000205DF8ED
:100B100008FB00BF4DF808EDFFF7CEFF94BF0120A2
:100B200000205DF808FB00BF4DF808EDFFF7C4FF9B
:100B300034BF012000205DF808FB00BF4FEA410CE4
:100B40007FEA6C5C02D150EA013C0AD14FEA430CC7
:100B50007FEA6C5C02D152EA033C02D14FF0000004
:100B600070474FF0010070474FEA410212F5001242
:100B700015D211D56FF47873B3EB625212D94FEAE4
:100B8000C12343F0004343EA505311F0004F23FACE
:100B900002F018BF404270474FF00000704750EA23
:100BA000013005D111F0004008BF6FF000407047E0
:100BB0004FF00000704700BF4FEA4102B2F1E0433E
:100BC00024BFB3F5001CDCF1FE5C0DD901F0004C34
:100BD0004FEAC0024CEA5070B2F1004F40EB830084
:100BE00008BF20F00100704711F0804F21D113F1B0
:100BF0003872BCBF01F00040704741F480114FEAE9
:100C00005252C2F11802C2F1200C10FA0CF320FA71
:100C100002F018BF40F001004FEAC1234FEAD3238E
:100C200003FA0CFC40EA0C0023FA02F34FEA4303F8
:100C3000CCE77FEA625307D150EA01331EBF4FF081
:100C4000FE4040F44000704701F0004040F0FE409C
:100C500040F40000704700BF53B94AB9002908BFEB
:100C600000281CBF4FF0FF314FF0FF3000F06EB98D
:100C7000ADF1080C6DE904CE00F006F8DDF804E0F3
:100C8000DDE9022304B070472DE9F047089D0446D2
:100C90008C46002B40F083808A42174647D9B2FA2F
:100CA00082F242B1C2F1200024FA00F09140974054
:100CB00040EA010C94404FEA1748230CBCFBF8F6BD
:100CC0001FFA87FE08FB16C143EA014306FB0EF13B
:100CD000994209D9FB1806F1FF3080F01981994239
:100CE00040F21681023E3B445B1AA4B2B3FBF8F01B
:100CF00008FB103344EA034400FB0EFEA64509D965
:100D00003C1900F1FF3380F00581A64540F20281D5
:100D100002383C4440EA0640A4EB0E0400261DB114
:100D2000D4400023C5E900433146BDE8F08702B94D
:100D3000FFDEB2FA82F2002A50D1CB1B4FEA174EE7
:100D40001FFA87F80126B3FBFEFC210C0EFB1C33B7
:100D500041EA034108FB0CF38B4207D979180CF1E7
:100D6000FF3002D28B4200F2E9808446C91AA3B256
:100D7000B1FBFEF00EFB101143EA014408FB00F842
:100D8000A04507D93C1900F1FF3302D2A04500F27B
:100D9000D9801846A4EB080440EA0C40BFE78B4218
:100DA00009D9002D00F0B1800026C5E900013046C8
:100DB0003146BDE8F087B3FA83F6002E4AD18B4264
:100DC00002D3824200F2B880841A61EB0301012051
:100DD0008C46002DA8D0C5E9004CA5E7C2F1200340
:100DE00020FA03F6974001FA02F04FEA174ED94075
:100DF0003043030CB1FBFEF61FFA87F80EFB161109
:100E000043EA014306FB08F1994204FA02F409D9C6
:100E1000FB1806F1FF3C80F08D80994240F28A80F9
:100E2000023E3B445B1A81B2B3FBFEF00EFB103373
:100E300041EA034100FB08F38B4207D9791800F11E
:100E4000FF3C73D28B4271D902383944CB1A40EA45
:100E5000064678E7C6F1200C03FA06F422FA0CF3F2
:100E60001C4320FA0CF701FA06F34FEA144E21FA5C
:100E70000CF11F433B0CB1FBFEF91FFA84F80EFB8B
:100E8000191143EA014109FB08FA8A4502FA06F200
:100E900000FA06F308D9611809F1FF3048D28A45F3
:100EA00046D9A9F102092144A1EB0A01BFB2B1FB65
:100EB000FEF00EFB101147EA014700FB08F8B845A9
:100EC00007D9E71900F1FF312ED2B8452CD90238E5
:100ED000274440EA0940A7EB0807A0FB02894F45D9
:100EE000C64649461AD317D05DB1B3EB0E0267EB85
:100EF000010707FA0CFCF2404CEA0202F740C5E990
:100F0000002700263146BDE8F0872E4628460BE72D
:100F10000646E9E61846FDE64345E5D2B8EB020E83
:100F200069EB04010138DFE70846D2E760468DE748
:100F30008146B9E7664675E730464AE7ACF1020CF0
:100F4000394413E702383C4424E700BF704700BF30
:100F500080B483B000AF78600B46FB707B689B6900
:100F6000FA78012101FA02F21A437B689A6100BF04
:100F70000C37BD465DF8047B704780B483B000AF8A
:100F800078600B46FB707B689B69FA781032012110
:100F900001FA02F21A437B689A6100BF0C37BD4622
:100FA0005DF8047B704780B483B000AF78600B4677
:100FB000FB707B681B68FA785200032101FA02F289
:100FC000D2431A407B681A607B681B68FA7852002B
:100FD000012101FA02F21A437B681A607B68DB6820
:100FE000FA785200032101FA02F2D2431A407B68D8
:100FF000DA6000BF0C37BD465DF8047B7047000027
:1010000080B582B000AF0346FB71FB7903F00103AA
:10101000002B04D003211B48FFF79AFF03E00321B4
:101020001848FFF7AAFFFB7903F00203002B04D056
:1010300004211448FFF78CFF03E004211148FFF757
:101040009CFFFB7903F00403002B04D005210D481D
:10105000FFF77EFF03E005210A48FFF78EFFFB79CB
:1010600003F00803002B04D006210648FFF770FFA9
:1010700003E006210348FFF780FF00BF0837BD46A5
:1010800080BD00BF0004024080B483B000AF786030
:101090000B46FB707B681B68FA785200032101FA4B
:1010A00002F2D2431A407B681A607B681B68FA78A8
:1010B0005200012101FA02F21A437B681A607B6830
:1010C0005B68FA78012101FA02F2D2431A407B6888
:1010D0005A607B689B68FA785200032101FA02F299
:1010E000D2431A407B689A607B689B68FA7852000A
:1010F000012101FA02F21A437B689A607B68DB687F
:10110000FA785200032101FA02F2D2431A407B68B6
:10111000DA6000BF0C37BD465DF8047B7047000005
:1011200080B582B000AF78604C4A7B6813600621BE
:101130004B48FFF7A9FF05214948FFF7A5FF042108
:101140004748FFF7A1FF03214548FFF79DFF012115
:101150004448FFF799FF00214248FFF795FF414BB4
:101160009B69404A43F0020393613E4B9B693D4AB1
:1011700043F001039361394B1B6843F6982098476D
:10118000384B9B69374A43F480339361354B9B69F5
:10119000344A43F400339361324B9B69314A43F044
:1011A000010393610320FFF72BFF2E4B9B692D4A10
:1011B00043F480339361294B1B6841F20400984744
:1011C000284B9B69274A43F0010393610320FFF7F3
:1011D00017FF244B9B69234A43F4803393611F4BD1
:1011E0001B68642098471F4B9B691E4A43F001030C
:1011F00093610320FFF704FF1A4B9B69194A43F4DC
:1012000080339361154B1B6864209847154B9B698D
:10121000144A43F0010393610220FFF7F1FE114BE2
:101220009B69104A43F4803393610C4B1B68642024
:101230009847282000F0A2F8082000F09FF80F201F
:1012400000F09CF8142000F099F800F00DF802204E
:1012500000F094F800BF0837BD4680BD7002002042
:10126000000402400000024080B500AF012000F001
:1012700085F8034B1B6841F22430984700BF80BDBE
:101280007002002080B582B000AF03460A46FB71B1
:101290001346BB71FB79002B02D0012B03D005E074
:1012A0000023FB7102E04023FB7100BFFA79BB7998
:1012B0001344DBB2803BDBB2184600F05FF800BF9E
:1012C0000837BD4680BD80B582B000AF786006E0CB
:1012D0007B685A1C7A601B78184600F065F87B68BA
:1012E0001B78002BF4D100BF00BF0837BD4680BD7E
:1012F00080B582B000AF0346FB7103211C48FFF7A5
:1013000052FE04211A48FFF74EFE05211848FFF748
:101310004AFE06211648FFF746FE164B9B69154A02
:1013200043F001039361FB791B09DBB21846FFF719
:1013300067FE104B9B690F4A43F4803393610D4B5A
:101340009B690C4A43F001039361FB791846FFF750
:1013500057FE084B9B69074A43F480339361064B61
:101360001B687820984700BF0837BD4680BD00BF86
:1013700000040240000002407002002080B582B0EC
:1013800000AF0346FB71074B9B69064A43F40033E9
:101390009361FB791846FFF7ABFF00BF0837BD46E6
:1013A00080BD00BF0000024080B582B000AF0346A0
:1013B000FB71074B9B69064A43F002039361FB797B
:1013C0001846FFF795FF00BF0837BD4680BD00BF38
:1013D0000000024080B400AF144BDB68134A23F0D6
:1013E0008073D360114BDB68104A43F08073D36085
:1013F0000F4B1B680E4A23F0010313600C4B1B6854
:101400000B4A43F001031360094B00225A6000BFEE
:1014100000BF00BF064B5B68002B01D0002300E03B
:1014200001231846BD465DF8047B7047F0ED00E0EF
:10143000001000E080B58AB000AF07F1140300226D
:101440001A605A609A60DA601A6100233B612E4B81
:101450001B6B2D4A43F0040313632B4B1B6B03F0F0
:1014600004033B613B690023FB60274B1B6B264A4F
:1014700043F080031363244B1B6B03F08003FB607A
:10148000FB680023BB60204B1B6B1F4A43F001032A
:1014900013631D4B1B6B03F00103BB60BB68002390
:1014A0007B60194B1B6B184A43F002031363164B06
:1014B0001B6B03F002037B607B68002240F201613A
:1014C000124802F0A7FA01237B610123BB610023CC
:1014D000FB6100233B6207F1140319460B4802F03D
:1014E00015F94FF4C0637B610123BB610023FB61ED
:1014F00001233B6207F114031946044802F006F980
:1015000000BF2837BD4680BD0038024000040240BD
:1015100080B500AF124B134A1A60114B124A5A6041
:101520000F4B00229A600E4B0022DA600C4B4FF4F6
:1015300080421A610A4B00225A61094B00229A61CB
:10154000074B0022DA61064B00221A62044802F0BF
:101550007BFA0346002B01D000F0CCFA00BF80BD1F
:101560007402002000540040A086010080B58AB0BB
:1015700000AF786007F1140300221A605A609A6085
:10158000DA601A617B681B68194A93422CD10023E8
:101590003B61184B1B6B174A43F002031363154B57
:1015A0001B6B03F002033B613B694FF4C0737B612B
:1015B0001223BB610123FB6103233B6204237B6293
:1015C00007F1140319460C4802F0A0F80023FB6051
:1015D000084B1B6C074A43F400131364054B1B6C48
:1015E00003F40013FB60FB6800BF2837BD4680BDD5
:1015F00000540040003802400004024080B584B02E
:1016000000AF78600E4B5B68FB6003F095FE03460D
:101610000C4AA2FB03239B0CBB607B68BA6802FBED
:1016200003F37B6000BF064B5A68FB68D21A7B68E5
:101630009A42F8D300BF00BF1037BD4680BD00BF3F
:10164000001000E083DE1B4380B582B000AF01F0E4
:10165000D9FE00F0B7F9FFF7BDFEFFF7EBFE00F093
:1016600099FB00F03FFFFFF753FF00F007FD00F08C
:10167000A7FD00F045FE00F0EFFD00F025FABA48A6
:10168000FFF74EFDB94B1B6896225A630021B748FD
:1016900004F080F9B64B1B686FF001021A61B44880
:1016A00004F0B0F80021B34804F024FA0421B14852
:1016B00004F020FAB048FFF706FE00224FF4007154
:1016C000AE4802F0A7F948F6B800FFF797FF0020F0
:1016D00001F048F80346BB71BB791A46A849A948EE
:1016E00006F0E2F9FFF7C0FDA648FFF7ECFDA648BB
:1016F000FFF784FF00224FF48061A04802F08AF9CE
:10170000A24B1B6819469F4806F0CEF9FFF7ACFDC7
:101710009C48FFF7D8FD00F05FFA9D4B00221A802D
:101720000023FB710EE0002001F0F4FD03461A4691
:10173000974B1B889BB213449AB2954B1A80FB7946
:101740000133FB71FB79012BEDD9914B1B889BB2C7
:101750005B089AB28E4B1A808E4B93ED007A8C4BBD
:101760001B889BB207EE903AF8EEE77A77EE677A3D
:10177000894BC3ED007A00F049FA03461846FEF79C
:10178000C9FE77A3D3E90023FFF768F802460B46AA
:1017900010461946FFF710FA0346804A13607E4B45
:1017A000D3ED007A7D4B93ED007A7D4BD3ED006A4B
:1017B0007C4B93ED006A7C4BD3ED005AB0EE652A6A
:1017C000F0EE461AB0EE661AF0EE470AB0EE670A7F
:1017D00000F0AAFAF0EE407A744BC3ED007A734B36
:1017E00093ED007AF2EE046AC7EE267A9FED707AE6
:1017F00077EE877A5D4B1B68FCEEE77A17EE902A4E
:101800005A6300F0E9F95B4B1B685B6A694A136035
:10181000684B1A68684B1B689A4200F09B80FFF780
:1018200023FD644B1B689908644BA3FB01239A08B2
:1018300013469B001344CA1A042A00F2878001A3AE
:1018400053F822F0591800086D180008A518000870
:10185000DD180008151900084C4B1B68194649484B
:1018600006F022F94748FFF72EFD6FE0474B5B6813
:101870001946444806F018F94248FFF724FD0021B4
:101880000120FFF7FFFC434B1B681846FEF764FE80
:1018900002460B464A493B4806F006F93948FFF72D
:1018A00012FD53E0394B9B681946364806F0FCF8A8
:1018B0003448FFF708FD00210120FFF7E3FC384B17
:1018C0001B681846FEF748FE02460B463C492D4869
:1018D00006F0EAF82B48FFF7F6FC37E02B4BDB6805
:1018E0001946284806F0E0F82648FFF7ECFC0021EE
:1018F0000120FFF7C7FC2B4B1B681846FEF72CFE98
:1019000002460B462E491F4806F0CEF81D48FFF749
:10191000DAFC1BE01D4B1B6919461A4806F0C4F897
:101920001848FFF7D0FC00210120FFF7ABFC1E4B4D
:101930001B681846FEF710FE02460B462049114868
:1019400006F0B2F80F48FFF7BEFC00BF00210020F0
:10195000FFF798FC174B1B68174A1360DDE600BFC2
:101960000000000080842E41FD1500088404002042
:101970001C030020D0030020349F00080004024014
:10198000449F00081400002040420F000000002087
:101990004002002034000020F8020020480200200D
:1019A000280000202C0000203000002044020020ED
:1019B00000000C434C02002050020020CDCCCCCCC7
:1019C000549F000880B59AB000AF07F13803302269
:1019D0000021184605F0F6FB07F1240300221A60E7
:1019E0005A609A60DA601A6107F10C0300221A60EB
:1019F0005A609A60DA601A615A610023BB60304B0A
:101A00001B6C2F4A43F0805313642D4B1B6C03F067
:101A10008053BB60BB6800237B602A4B1B68294A4C
:101A200043F440431360274B1B6803F440437B603F
:101A30007B680523BB634FF48033FB6301233B6466
:101A400002233B654FF480037B650C23BB65602359
:101A5000FB6502233B6604237B6607F138031846C7
:101A600003F056F80346002B01D000F043F80F2393
:101A70007B620223BB620023FB624FF480533B6313
:101A800000237B6307F124030321184603F0B8FA0F
:101A90000346002B01D000F02DF80223FB604FF429
:101AA0008073FB6107F10C03184603F079FC0346D1
:101AB000002B01D000F01EF800BF6837BD4680BD86
:101AC000003802400070004080B500AF00220021C5
:101AD000192001F0E4FD192001F0FDFD00BF80BDDB
:101AE00080B582B000AF786000F00AF800BF083718
:101AF000BD4680BD80B400AF72B600BFFEE70000F7
:101B000080B400AF084B1B78C3F30003DBB2002B9B
:101B100004D0064B1B680133044A136000BFBD4666
:101B20005DF8047B704700BF58020020540200207B
:101B300080B483B000AF0346FB71FB79002B02D069
:101B4000022B09D00EE00A4B00221A60094A1378D2
:101B500043F00103137005E0064A137843F00203D3
:101B6000137000BF00BF0C37BD465DF8047B7047A3
:101B7000540200205802002080B483B000AF034616
:101B8000FB71FB79002B02D1044B1B6800E00023A2
:101B900018460C37BD465DF8047B704754020020A0
:101BA00080B483B000AF0346FB71FB79002B07D1F3
:101BB000074A13786FF300031370064B1B6800E0AD
:101BC000002318460C37BD465DF8047B704700BF04
:101BD000580200205402002080B400AF0A4B1B685A
:101BE00000225A62084B022283F83D20064B1B68F4
:101BF0001A68054B1B6842F001021A6000BFBD461F
:101C00005DF8047B704700BF3805002080B400AF4A
:101C1000114B1B681A6A41F211131340002B0FD1AC
:101C20000D4B1B681A6A40F244431340002B07D146
:101C3000094B1B681A68084B1B6822F001021A60E6
:101C4000054B012283F83D20034B1B685B6A184655
:101C5000BD465DF8047B70473805002080B483B032
:101C600000AF87ED010AC7ED000A97ED007AD7EDC6
:101C7000017A67EE277AB0EE670A0C37BD465DF849
:101C8000047B704780B485B000AF87ED030AC7EDD1
:101C9000020A87ED011A97ED037AD7ED027A27EE53
:101CA000277A0B4BD3ED007A77EE277A084BC3EDFA
:101CB000007A074B93ED007AD7ED017A67EE277A29
:101CC000B0EE670A1437BD465DF8047B704700BF6D
:101CD0005C02002080B487B000AF87ED030AC7ED37
:101CE000020A87ED011A0F4BD3ED007A97ED037AC4
:101CF00077EE676A97ED027AC6EE877A97ED017AFA
:101D000067EE277AC7ED057A064AFB6813607B69A0
:101D100007EE903AB0EE670A1C37BD465DF8047BCB
:101D2000704700BF6002002080B52DED028B86B0A9
:101D300000AF87ED050AC7ED040A87ED031AC7ED6A
:101D4000021A87ED012AD7ED030A97ED050AFFF77E
:101D500085FFB0EE408A97ED021AD7ED040A97EDA1
:101D6000050AFFF78FFFF0EE407A38EE278A97EDED
:101D7000011AD7ED040A97ED050AFFF7ABFFF0EE65
:101D8000407A78EE277AB0EE670A1837BD46BDEC88
:101D9000028B80BD80B500AF0F4B104A1A600E4B0E
:101DA00000225A600C4B7F229A600B4BFF22DA60B4
:101DB000094B00221A61084B00225A61064B00228F
:101DC0009A61054803F0DCFB0346002B01D0FFF7C6
:101DD00091FE00BF80BD00BFFC0200200028004033
:101DE00080B483B000AF78607B681B68054A93427B
:101DF00002D1054B01221A6000BF0C37BD465DF8C9
:101E0000047B7047002800403C0E474280B582B0FA
:101E100000AF00237B60104B5B6C0F4A43F48043A0
:101E200053640D4B5B6C03F480437B607B68002341
:101E30003B60094B1B6C084A43F080531364064B0C
:101E40001B6C03F080533B603B68062001F01CFCD8
:101E500000BF0837BD4680BD0038024080B400AFE7
:101E6000FEE780B400AFFEE780B400AFFEE780B4C9
:101E700000AFFEE780B400AFFEE780B400AF00BF64
:101E8000BD465DF8047B704780B400AF00BFBD461F
:101E90005DF8047B704780B400AF00BFBD465DF8BD
:101EA000047B704780B500AF01F0FEFA00BF80BD33
:101EB00080B500AF034803F09FFF034803F09CFF89
:101EC00000BF80BD840400201C03002080B400AF4C
:101ED00001231846BD465DF8047B704780B582B08B
:101EE00000AF7860396005F043F9034616221A60A6
:101EF0004FF0FF3318460837BD4680BD80B582B02D
:101F000000AF78604FF0FF317868FFF7E7FFFEE73A
:101F100080B586B000AFF860B9607A6000237B615D
:101F20000AE0AFF300800146BB685A1CBA60CAB22F
:101F30001A707B6901337B617A697B689A42F0DBB6
:101F40007B6818461837BD4680BD80B586B000AFA7
:101F5000F860B9607A6000237B6109E0BB685A1CB5
:101F6000BA601B781846AFF300807B6901337B6150
:101F70007A697B689A42F1DB7B6818461837BD4660
:101F800080BD80B483B000AF78604FF0FF33184657
:101F90000C37BD465DF8047B704780B483B000AF5A
:101FA000786039603B684FF400525A60002318464D
:101FB0000C37BD465DF8047B704780B483B000AF3A
:101FC0007860012318460C37BD465DF8047B7047E6
:101FD00080B485B000AFF860B9607A60002318461D
:101FE0001437BD465DF8047B7047000080B586B0AD
:101FF00000AF7860144A154BD31A7B617B693B6153
:10200000134B1B68002B02D1114B124A1A60104B64
:102010001A687B6813443A699A4207D205F0A8F817
:1020200003460C221A604FF0FF3309E0084B1B688F
:10203000FB60074B1A687B681344054A1360FB6812
:1020400018461837BD4680BD00000220000400007D
:10205000640200208006002080B400AF064BD3F855
:102060008830054A43F47003C2F8883000BFBD468B
:102070005DF8047B704700BF00ED00E080B596B0CE
:1020800000AF07F1480300221A605A609A60DA60D4
:1020900007F1400300221A605A6007F1240300226E
:1020A0001A605A609A60DA601A615A619A613B1D3F
:1020B00020220021184605F085F83F4B3F4A1A6060
:1020C0003D4B40F2E7325A603B4B00229A603A4B5C
:1020D00040F2CF72DA60384B00221A61364B002290
:1020E0005A61354B00229A61334803F02FFB0346B7
:1020F000002B01D0FFF7FEFC4FF48053BB6407F1C7
:10210000480319462C4804F05DF80346002B01D023
:10211000FFF7F0FC284803F0D7FB0346002B01D063
:10212000FFF7E8FC00233B6400237B6407F14003D6
:102130001946214804F088FC0346002B01D0FFF724
:10214000D9FC60237B626323BB620023FB62002314
:102150003B6300237B630023BB630023FB6307F126
:10216000240300221946144803F06EFF0346002B97
:1021700001D0FFF7BFFC00237B600023BB6000237E
:10218000FB6000233B6100237B614FF40053BB6184
:1021900000233B623B1D1946074804F0C3FC03467D
:1021A000002B01D0FFF7A6FC034800F061F900BF47
:1021B0005837BD4680BD00BF8404002000000140A8
:1021C00080B586B000AF07F1080300221A605A609C
:1021D0009A60DA603B4600221A605A601D4B4FF04D
:1021E00080421A601B4B63225A601A4B00229A608D
:1021F000184B4FF0FF32DA60164B00221A61154B74
:1022000000229A61134803F0A1FA0346002B01D083
:10221000FFF770FC4FF48053BB6007F108031946C9
:102220000C4803F0CFFF0346002B01D0FFF762FC00
:1022300000233B6000237B603B461946054804F0C1
:1022400003FC0346002B01D0FFF754FC00BF1837F6
:10225000BD4680BD3805002080B58CB000AF07F1C9
:102260000C0324220021184604F0ACFF3B1D002281
:102270001A605A60204B214A1A601F4B00225A6094
:102280001D4B00229A601C4B4FF4FA42DA601A4B45
:1022900000221A61184B00229A610323FB6000237D
:1022A0003B6101237B610023BB610F23FB610023A2
:1022B0003B6201237B620023BB620F23FB6207F1B9
:1022C0000C0319460C4803F0E3FC0346002B01D035
:1022D000FFF710FC00237B600023BB603B1D194609
:1022E000054804F0B1FB0346002B01D0FFF702FCC8
:1022F00000BF3037BD4680BDD00300200004004041
:1023000080B500AF0E4B0F4A1A600D4B40F2E7321A
:102310005A600B4B00229A60094B6322DA60084B2B
:1023200000221A61064B00229A61054803F00EFA5A
:102330000346002B01D0FFF7DDFB00BF80BD00BFCF
:102340001C0300200044014080B487B000AF7860D7
:102350007B681B681F4A93420ED100237B611E4B92
:102360005B6C1D4A43F0010353641B4B5B6C03F031
:1023700001037B617B6926E07B681B68B3F1804FBA
:102380000ED100233B61144B1B6C134A43F0010335
:102390001364114B1B6C03F001033B613B6912E0BA
:1023A0007B681B680D4A93420DD10023FB600A4BEA
:1023B0005B6C094A43F400335364074B5B6C03F4D2
:1023C0000033FB60FB6800BF1C37BD465DF8047B33
:1023D000704700BF00000140003802400044014047
:1023E00080B58AB000AF786007F1140300221A604C
:1023F0005A609A60DA601A617B681B68194A9342D6
:102400002BD100233B61184B1B6C174A43F002038E
:102410001364154B1B6C03F002033B613B69002303
:10242000FB60114B1B6B104A43F0010313630E4B0F
:102430001B6B03F00103FB60FB68C0237B6102237D
:10244000BB610023FB6100233B6202237B6207F137
:1024500014031946054801F059F900BF2837BD4655
:1024600080BD00BF00040040003802400000024070
:1024700080B588B000AF786007F10C0300221A60C5
:102480005A609A60DA601A617B681B68124A93424C
:102490001ED10023BB60114B1B6B104A43F001039C
:1024A00013630E4B1B6B03F00103BB60BB684FF45F
:1024B0008073FB6002233B6100237B610023BB61CF
:1024C0000123FB6107F10C031946054801F01EF9D1
:1024D00000BF2037BD4680BD0000014000380240EB
:1024E0000000024080B500AF114B124A1A60104B39
:1024F0004FF4E1325A600E4B00229A600C4B0022DE
:10250000DA600B4B00221A61094B0C225A61084B0E
:1025100000229A61064B0022DA61054804F072FB42
:102520000346002B01D0FFF7E5FA00BF80BD00BFD6
:10253000EC0500200010014080B58AB000AF786043
:1025400007F1140300221A605A609A60DA601A6177
:102550007B681B68194A93422CD100233B61184BBE
:102560005B6C174A43F010035364154B5B6C03F02C
:1025700010033B613B690023FB60114B1B6B104A4E
:1025800043F0010313630E4B1B6B03F00103FB606D
:10259000FB684FF4C0637B610223BB610023FB61D6
:1025A00003233B6207237B6207F1140319460548A6
:1025B00001F0ACF800BF2837BD4680BD00100140D7
:1025C000003802400000024080B500AF0020FFF755
:1025D000AFFA00BF80BD80B500AF0020FFF7CCFA96
:1025E0000346184680BD80B500AF0020FFF7D8FA3B
:1025F0000346184680BD000090B587B004AF03467F
:102600000A46FB711346BB71094B1C68094B1868DD
:10261000FB799AB23223029301230193BB1D0093ED
:1026200001235221A04700BF0C37BD4690BD00BF1B
:10263000440000204000002090B589B004AF03465C
:102640000A46FB711346BB80BB881B0A9BB2DBB2F8
:102650003B73BB88DBB27B73094B1C68094B186862
:10266000FB799AB2322302930223019307F10C0300
:10267000009301235221A04700BF1437BD4690BDEF
:10268000440000204000002090B589B004AF03460C
:10269000FB710A4B1C680A4B1868FB799AB232230B
:1026A00002930123019307F10F03009301235221A9
:1026B000A047FB7B18461437BD4690BD480000205C
:1026C0004000002090B589B004AF0346FB710023A1
:1026D000FB810023BB81114B1C68114B1868FB79EF
:1026E0009AB2322302930223019307F10C03009361
:1026F00001235221A0473B7B1B021AB2B7F90E30CF
:1027000013431BB2FB817B7B9AB2FB891343FB8192
:10271000FB8918461437BD4690BD00BF4800002015
:102720004000002090B587B004AF03463960FB71CC
:102730001346BB71094B1C68094B1868FB799AB2A8
:10274000BB799BB23221029101933B680093012334
:102750005221A04700BF0C37BD4690BD4800002065
:102760004000002080B586B000AF0346FB71FB79C6
:10277000002B0AD08920FFF787FF034643F00103AF
:10278000DBB219468920FFF737FF00218820FFF7C9
:1027900033FF01218020FFF72FFF0121FF20FFF7EA
:1027A0002BFF00210020FFF727FF9120FFF76CFF90
:1027B00003461A463C4B1A7001210020FFF71CFF0C
:1027C0000021FF20FFF718FF00218020FFF714FFF2
:1027D0006020FFF759FF034643F01203DBB21946AE
:1027E0006020FFF709FFB5EE000A00F09DFAFF2117
:1027F0000120FFF701FF07F1130207F1140311464F
:10280000184600F0C7FA0346002B01D10023EDE182
:1028100007F10C0306221946B020FFF783FF0121C0
:10282000FF20FFF7E9FE00214F20FFF7E5FE2C21F6
:102830004E20FFF7E1FE0021FF20FFF7DDFEB4216F
:10284000B620FFF7D9FEFB7C002B01D00C2300E063
:1028500000237B750023FB750023BB753EE0BA7D2A
:102860007B7D9A4203D33B7DFA7D9A421ED1BB7D8C
:10287000DB08D8B2034607F11802134413F80C3CE6
:102880005AB2BB7D03F00703012101FA03F35BB2E7
:10289000DB435BB213405AB20346D2B207F11801D0
:1028A0000B4403F80C2C16E060060020BB7DDB080F
:1028B000DBB207F11802134413F80C3C1A46BB7D37
:1028C00003F0070342FA03F303F00103002B02D0E5
:1028D000FB7D0133FB75BB7D0133BB75BB7D2F2BAE
:1028E000BDD907F10C0306221946B020FFF71AFFE5
:1028F0000121FF20FFF780FE00210020FFF77CFE72
:102900000021FF20FFF778FE00210920FFF774FE69
:1029100000211020FFF770FE00211120FFF76CFE50
:1029200001212420FFF768FEFF212520FFF764FE28
:1029300000217520FFF760FE0121FF20FFF75CFEFC
:102940002C214E20FFF758FE00214820FFF754FEAF
:1029500020213020FFF750FE0021FF20FFF74CFE22
:1029600009213020FFF748FE00215420FFF744FEE4
:1029700004213120FFF740FE03213220FFF73CFE07
:1029800083214020FFF738FE25214620FFF734FE43
:1029900000216020FFF730FE00212720FFF72CFEEA
:1029A00006215020FFF728FE00215120FFF724FECA
:1029B00096215220FFF720FE08215620FFF71CFE2B
:1029C00030215720FFF718FE00216120FFF714FE89
:1029D00000216220FFF710FE00216420FFF70CFEAB
:1029E00000216520FFF708FEA0216620FFF704FE06
:1029F0000121FF20FFF700FE32212220FFF7FCFD1E
:102A000014214720FFF7F8FDFF214920FFF7F4FDCF
:102A100000214A20FFF7F0FD0021FF20FFF7ECFD29
:102A20000A217A20FFF7E8FD00217B20FFF7E4FD73
:102A300021217820FFF7E0FD0121FF20FFF7DCFDD9
:102A400034212320FFF7D8FD00214220FFF7D4FDD9
:102A5000FF214420FFF7D0FD26214520FFF7CCFDC4
:102A600005214620FFF7C8FD40214020FFF7C4FDA7
:102A700006210E20FFF7C0FD1A212020FFF7BCFD24
:102A800040214320FFF7B8FD0021FF20FFF7B4FDF0
:102A900003213420FFF7B0FD44213520FFF7ACFDC2
:102AA0000121FF20FFF7A8FD04213120FFF7A4FD3D
:102AB00009214B20FFF7A0FD05214C20FFF79CFDCD
:102AC00004214D20FFF798FD0021FF20FFF794FD22
:102AD00000214420FFF790FD20214520FFF78CFDC9
:102AE00008214720FFF788FD28214820FFF784FDB3
:102AF00000216720FFF780FD04217020FFF77CFD97
:102B000001217120FFF778FDFE217220FFF774FD8F
:102B100000217620FFF770FD00217720FFF76CFD84
:102B20000121FF20FFF768FD01210D20FFF764FD63
:102B30000021FF20FFF760FD01218020FFF75CFDF1
:102B4000F8210120FFF758FD0121FF20FFF754FD78
:102B500001218E20FFF750FD01210020FFF74CFDE1
:102B60000021FF20FFF748FD00218020FFF744FDF2
:102B700004210A20FFF740FD8420FFF785FD03466E
:102B800023F01003DBB219468420FFF735FD012145
:102B90000B20FFF731FD00F075F90346154A13606D
:102BA000E8210120FFF728FD124B1B68184600F0B2
:102BB00023F801210120FFF71FFD402000F00CFB4E
:102BC0000346002B01D1002310E002210120FFF772
:102BD00013FD002000F000FB0346002B01D1002371
:102BE00004E0E8210120FFF707FD0123184618370C
:102BF000BD4680BD6406002080B592B000AF78600D
:102C00004FF4A563A7F840304FF47073FB874FF47F
:102C10002573BB8740F24E237B8740F2B2233B876C
:102C20004FF42573FB8640F22623BB8644F62063CF
:102C30003B637A683B6B9A4201D200236EE0B7F89F
:102C40004020FB8F13447B6407F12403184600F0F7
:102C50007BF907F10C0207F124031146184600F036
:102C6000A5F997F82430002B05D0BA697B8F13445F
:102C70007A6C13447B6497F82630002B07D0BA692E
:102C80003B8F13445B007A6C13447B6409E097F834
:102C90002530002B05D0BA69BB8F13447A6C1344DE
:102CA0007B6497F82730002B05D0FA69FB8E13441C
:102CB0007A6C13447B6497F82830002B2DD0BB8EA0
:102CC0007A6C13447B647A6C7B689A4201D9002346
:102CD00024E07A687B6CD31AFB62FB89DBB219466D
:102CE000F86A00F027FA0346A7F8423097F8273031
:102CF000002B05D07A8AB7F842301344A7F8423047
:102D0000B7F84230184600F03BFA034619467120E6
:102D1000FFF792FC034A7B6813600123184648378B
:102D2000BD4680BD6406002080B582B000AF87ED4F
:102D3000010AD7ED017AF5EEC07AF1EE10FA0AD465
:102D40007868FDF709FC11A3D3E90023FDF7ECFE39
:102D50000346002B01D000230FE0D7ED017A9FED51
:102D60000A7A67EE877AFCEEE77A17EE903A9BB222
:102D700019464420FFF760FC012318460837BD467A
:102D800080BD00BFAFF3008000000043A4703D0A87
:102D9000D7FF7F4080B584B000AF786039600121F3
:102DA0008020FFF729FC0121FF20FFF725FC0021EF
:102DB0000020FFF721FC0621FF20FFF71DFC8320E8
:102DC000FFF762FC034643F00403DBB2194683209D
:102DD000FFF712FC0721FF20FFF70EFC01218120E5
:102DE000FFF70AFC01218020FFF706FC6B219420ED
:102DF000FFF702FC00218320FFF7FEFB00BF8320CA
:102E0000FFF742FC0346002BF9D001218320FFF796
:102E1000F3FB9220FFF738FC0346FB73FB7B03F0C8
:102E20007F03DAB27B681A70FB7BDB09DAB23B689E
:102E30001A7000218120FFF7DFFB0621FF20FFF73A
:102E4000DBFB8320FFF720FC034623F00403DBB207
:102E500019468320FFF7D0FB0121FF20FFF7CCFBB1
:102E600001210020FFF7C8FB0021FF20FFF7C4FB72
:102E700000218020FFF7C0FB012318461037BD4614
:102E800080BD000080B58CB000AF40F276737B85CA
:102E90004FF470733B854FF42573FB8440F24E234F
:102EA000BB8440F2B2237B844FF425733B8440F211
:102EB0002623FB837A8D3B8D1344FB6207F11803B5
:102EC000184600F041F83A4607F118031146184633
:102ED00000F06CF83B7E002B05D0FA68BB8C1344E5
:102EE000FA6A1344FB62BB7E002B07D0FA687B8C26
:102EF00013445B00FA6A1344FB6208E07B7E002BFC
:102F000005D0FA68FB8C1344FA6A1344FB62FB7E1B
:102F1000002B05D03A693B8C1344FA6A1344FB62D8
:102F20003B7F002B05D07A69FB8B1344FA6A13446C
:102F3000FB62044AFB6A1360FB6A18463037BD46E1
:102F400080BD00BF6406002080B584B000AF78600B
:102F50000120FFF799FB0346FB73FB7B1B09DBB2E8
:102F600003F00103DAB27B681A70FB7BDB08DBB28B
:102F700003F00103DAB27B689A70FB7B9B08DBB23B
:102F800003F00103DAB27B685A70FB7B9B09DBB26A
:102F900003F00103DAB27B68DA70FB7BDB09DAB29B
:102FA0007B681A7100BF1037BD4680BD80B582B006
:102FB00000AF78603960002000F05EF803469AB2F6
:102FC0003B681A804620FFF75FFB03469BB2013344
:102FD0009AB23B689A803B689A883B681B88DBB250
:102FE0001946104600F06AF802463B68DA60512044
:102FF000FFF768FB0346184600F088F803461A46B8
:103000003B68DA803B68DA883B681B88DBB219468C
:10301000104600F053F802463B681A61012000F0A8
:103020002BF803469AB23B685A807120FFF74AFB9F
:103030000346184600F06AF803461A463B681A81B0
:103040007B68DB78002B07D03B681A893B68DB88FC
:10305000D31A9AB23B681A813B681A893B685B882D
:10306000DBB21946104600F029F802463B685A6167
:1030700000BF0837BD4680BD80B582B000AF0346B3
:10308000FB71FB79002B08D15020FFF7FDFA0346B6
:103090000133DBB25B00DBB20CE0FB79012B08D122
:1030A0007020FFF7F1FA03460133DBB25B00DBB2BD
:1030B00000E0FF2318460837BD4680BD80B485B0C8
:1030C00000AF03460A46FB8013467B717B790D4AAD
:1030D00002FB03F303F5FA730B4AA2FB03239B09DC
:1030E000FB60FB88FA6802FB03F2FB685B08134491
:1030F000054AA2FB03239B0918461437BD465DF819
:10310000047B7047002F3A00D34D621080B483B027
:1031100000AF0346FB80FB88DBB2FA88120A92B24A
:1031200093409BB201339BB218460C37BD465DF805
:10313000047B704780B485B000AF78600B46FB70AD
:10314000FB780D4A02FB03F303F5FA730B4AA2FB6B
:1031500003239B09FB607B684FF47A7202FB03F246
:10316000FB685B081A44FB68B2FBF3F3184614379C
:10317000BD465DF8047B7047002F3A00D34D6210C6
:1031800080B485B000AF0346FB800023FB600023C2
:103190007B81FB88002B18D0FB88013BFB6005E09E
:1031A000FB685B08FB607B8901337B81FB6823F054
:1031B000FF03002BF4D17B891B029AB2FB689BB200
:1031C000DBB29BB213439BB200E0002318461437D6
:1031D000BD465DF8047B704780B582B000AF034602
:1031E000FB71FB7943F00103DBB219460020FFF7C6
:1031F00003FAFFF7E9F90EE0114B1B88002B0AD008
:10320000FFF7E9F903460E4A1288934203D9FFF704
:10321000EAF9002310E01320FFF736FA034603F023
:103220000703002BE8D001210B20FFF7E5F900216F
:103230000020FFF7E1F9012318460837BD4680BD9D
:103240003C00002080B586B000AF7860FFF7BCF985
:103250000FE02F4B1B88002B0BD0FFF7BCF9034668
:103260002B4A1288934204D9FFF7BDF94FF6FF733A
:103270004AE01320FFF708FA034603F00703002B88
:10328000E7D07B68002B05D11E20FFF71BFA034611
:10329000FB8234E007F108030C2219461420FFF7E3
:1032A00041FA3B7ADB08DAB27B681A72BB7A1B02FE
:1032B0001AB2FB7A1BB213431BB29AB27B68DA8054
:1032C000BB7B1B021AB2FB7B1BB213431BB29AB22D
:1032D0007B685A803B7C1B021AB27B7C1BB2134377
:1032E0001BB29AB27B689A80BB7C1B021AB2FB7C31
:1032F0001BB213431BB2FB827B68FA8A1A8001213E
:103300000B20FFF779F9FB8A18461837BD4680BDB8
:103310003C00002080B582B000AF786001218020A1
:10332000FFF76AF90121FF20FFF766F9002100206D
:10333000FFF762F91C4B1B7819469120FFF75CF9E7
:1033400001210020FFF758F90021FF20FFF754F971
:1033500000218020FFF750F901210020FFF74CF9F0
:10336000FFF732F90FE0114B1B88002B0BD0FFF752
:1033700032F903460D4A1288934204D9FFF733F914
:103380004FF6FF730BE00020FFF77EF9034603F0D2
:103390000103002BE7D17868FFF754FF0346184676
:1033A0000837BD4680BD00BF600600203C000020FD
:1033B000DFF834D00D480E490E4A002302E0D458FD
:1033C000C4500433C4188C42F9D30B4A0B4C00236D
:1033D00001E013600432A242FBD3FEF73DFE03F08E
:1033E000CDFEFEF731F970470000022000000020FA
:1033F000240200208CA30008240200207C06002068
:10340000FEE7000080B500AF0E4B1B680D4A43F489
:10341000007313600B4B1B680A4A43F4806313600C
:10342000084B1B68074A43F480731360032000F0C5
:103430002BF9002000F008F8FEF7E8FC00231846FE
:1034400080BD00BF003C024080B582B000AF786014
:10345000124B1A68124B1B7819464FF47A73B3FB60
:10346000F1F3B2FBF3F3184600F043F90346002BE7
:1034700001D001230EE07B680F2B0AD80022796867
:103480004FF0FF3000F00BF9064A7B681360002311
:1034900000E0012318460837BD4680BD38000020F3
:1034A000500000204C00002080B400AF064B1B7879
:1034B0001A46064B1B681344044A136000BFBD46FE
:1034C0005DF8047B704700BF5000002068060020B4
:1034D00080B400AF034B1B681846BD465DF8047B03
:1034E000704700BF6806002080B485B000AF7860E8
:1034F0007B6803F00703FB600C4BDB68BB60BA68BA
:103500004FF6FF031340BB60FB681A02BB6813430E
:1035100043F0BF6343F40033BB60044ABB68D3602D
:1035200000BF1437BD465DF8047B704700ED00E036
:1035300080B400AF044BDB681B0A03F00703184696
:10354000BD465DF8047B704700ED00E080B483B0B9
:1035500000AF0346FB7197F90730002B0BDBFB79BB
:1035600003F01F02074997F907305B09012000FAB1
:1035700002F241F8232000BF0C37BD465DF8047B02
:10358000704700BF00E100E080B483B000AF0346A5
:103590003960FB7197F90730002B0ADB3B68DAB220
:1035A0000C4997F907301201D2B20B4483F800237B
:1035B0000AE03B68DAB20849FB7903F00F03043BE9
:1035C0001201D2B20B441A7600BF0C37BD465DF82B
:1035D000047B704700E100E000ED00E080B489B0BA
:1035E00000AFF860B9607A60FB6803F00703FB6125
:1035F000FB69C3F10703042B28BF0423BB61FB69EC
:103600000433062B02D9FB69033B00E000237B61F6
:103610004FF0FF32BB6902FA03F3DA43BB681A408A
:103620007B699A404FF0FF317B6901FA03F3D9437C
:103630007B680B40134318462437BD465DF8047B76
:103640007047000080B582B000AF78607B68013BB6
:10365000B3F1807F01D301230FE00A4A7B68013B6D
:1036600053600F214FF0FF30FFF78EFF054B002214
:103670009A60044B07221A60002318460837BD469B
:1036800080BD00BF10E000E080B582B000AF786080
:103690007868FFF729FF00BF0837BD4680BD80B5B9
:1036A00086B000AF0346B9607A60FB7300237B618C
:1036B000FFF73EFF78617A68B9687869FFF78EFF97
:1036C000024697F90F3011461846FFF75DFF00BF1D
:1036D0001837BD4680BD80B582B000AF0346FB7190
:1036E00097F907301846FFF731FF00BF0837BD468E
:1036F00080BD80B582B000AF78607868FFF7A2FF28
:10370000034618460837BD4680BD000080B489B026
:1037100000AF7860396000237B6100233B610023A8
:10372000BB610023FB6159E10122FB6902FA03F34B
:103730007B613B681B687A6913403B613A697B692E
:103740009A4240F048813B685B6803F00303012B19
:1037500005D03B685B6803F00303022B30D17B6824
:103760009B68BB61FB695B00032202FA03F3DB4346
:10377000BA691340BB613B68DA68FB695B0002FA17
:1037800003F3BA691343BB617B68BA699A607B68CB
:103790005B68BB610122FB6902FA03F3DB43BA6990
:1037A0001340BB613B685B681B0903F00102FB69C6
:1037B00002FA03F3BA691343BB617B68BA695A60C2
:1037C0003B685B6803F00303032B17D07B68DB685F
:1037D000BB61FB695B00032202FA03F3DB43BA69B6
:1037E0001340BB613B689A68FB695B0002FA03F314
:1037F000BA691343BB617B68BA69DA603B685B688E
:1038000003F00303022B23D1FB69DA087B6808323B
:1038100053F82230BB61FB6903F007039B000F22C2
:1038200002FA03F3DB43BA691340BB613B681A69D0
:10383000FB6903F007039B0002FA03F3BA69134321
:10384000BB61FB69DA087B680832B96943F822106A
:103850007B681B68BB61FB695B00032202FA03F310
:10386000DB43BA691340BB613B685B6803F003024A
:10387000FB695B0002FA03F3BA691343BB617B681F
:10388000BA691A603B685B6803F08053002B00F054
:10389000A2800023FB60574B5B6C564A43F4804385
:1038A0005364544B5B6C03F48043FB60FB68524AE7
:1038B000FB699B08023352F82330BB61FB6903F0BC
:1038C00003039B000F2202FA03F3DB43BA691340A0
:1038D000BB617B68494A934219D07B68484A93424E
:1038E00013D07B68474A93420DD07B68464A934287
:1038F00007D07B68454A934201D1042308E007239F
:1039000006E0032304E0022302E0012300E0002399
:10391000FA6902F0030292009340BA691343BB6153
:103920003549FB699B080233BA6941F82320384BBB
:103930001B68BB613B69DB43BA691340BB613B68F1
:103940005B6803F48033002B03D0BA693B691343EF
:10395000BB612F4ABB6913602D4B5B68BB613B6940
:10396000DB43BA691340BB613B685B6803F4003317
:10397000002B03D0BA693B691343BB61244ABB697E
:103980005360234B9B68BB613B69DB43BA691340BF
:10399000BB613B685B6803F48013002B03D0BA69FA
:1039A0003B691343BB611A4ABB699360184BDB68E0
:1039B000BB613B69DB43BA691340BB613B685B6831
:1039C00003F40013002B03D0BA693B691343BB61B6
:1039D0000F4ABB69D360FB690133FB61FB690F2BA5
:1039E0007FF6A2AE00BF00BF2437BD465DF8047B62
:1039F000704700BF0038024000380140000002401C
:103A00000004024000080240000C02400010024086
:103A1000003C014080B483B000AF78600B467B80EF
:103A200013467B707B78002B03D07A887B689A6181
:103A300003E07B881A047B689A6100BF0C37BD469F
:103A40005DF8047B7047000080B584B000AF7860FB
:103A50007B68002B01D1012371E17B6893F83D3035
:103A6000DBB2002B2CD17B68002283F83C207B68E2
:103A7000774A5A657B68774A9A657B68764ADA6541
:103A80007B68764A1A667B68754A5A667B68754A0F
:103A90009A667B68744ADA667B68744A1A677B6840
:103AA000734A5A677B68734A9A677B68DB6F002B9F
:103AB00002D17B68704ADA677B68DB6F7868984769
:103AC0007B68242283F83D207B681B681A687B682A
:103AD0001B6822F001021A607B681B681A687B6809
:103AE0001B6842F400421A607B681B681A687B6896
:103AF0001B6822F400421A6001F02AFCF8607B681F
:103B00005B685E4A934207D8FB685D4A934294BF64
:103B100001230023DBB206E0FB685A4A934294BFBC
:103B200001230023DBB2002B01D0012307E1FB6856
:103B3000554AA2FB03239B0CBB607B681B685B6838
:103B400023F03F017B681B68BA680A435A607B68B0
:103B50001B681B6A23F03F017B685B68474A9342FE
:103B600002D8BB68013309E0BB684FF4967202FBD0
:103B700003F3464AA2FB03239B0901337A681268C8
:103B80000B4313627B681B68DB6923F44F4222F00E
:103B9000FF027B685B6839498B4219D8FB68591E64
:103BA0007B685B685B00B1FBF3F3591C40F6FC7368
:103BB0000B40002B0AD0FB68591E7B685B685B00DA
:103BC000B1FBF3F30133C3F30B0371E004236FE0A4
:103BD0007B689B68002B11D1FB68581E7B68596875
:103BE0000B465B000B44B0FBF3F30133C3F30B0351
:103BF000002B0CBF01230023DBB212E0FB68581E30
:103C00007B6859680B469B000B4499000B44B0FB42
:103C1000F3F30133C3F30B03002B0CBF0123002389
:103C2000DBB2002B01D0012342E07B689B68002BB4
:103C30002ED1FB68581E7B6859680B465B000B440D
:103C4000B0FBF3F30133C3F30B0343F400432FE062
:103C5000894300089D430008B1430008C54300089C
:103C6000F5430008094400081D44000831440008D9
:103C700045440008D94300086D150008A0860100DE
:103C80007F841E00FF083D0083DE1B43D34D62107E
:103C9000FB68581E7B6859680B469B000B449900D3
:103CA0000B44B0FBF3F30133C3F30B0343F4404382
:103CB000796809681343CB617B681B681B6823F034
:103CC000C0017B68DA697B681B6A1A437B681B68E2
:103CD0000A431A607B681B689B6823F4034323F044
:103CE000FF037A6811697A68D26811437A681268AA
:103CF0000B4393607B681B68DB6823F0FF017B68E4
:103D00005A697B689B691A437B681B680A43DA60BF
:103D10007B681B681A687B681B6842F001021A60A6
:103D20007B6800221A647B68202283F83D207B6830
:103D300000221A637B68002283F83E200023184685
:103D40001037BD4680BD00BF80B588B002AFF860B7
:103D5000084611461A4603467B810B463B811346B3
:103D6000FB80FFF7B5FB7861FB6893F83D30DBB271
:103D7000202B40F0D9807B690093192301226D49E3
:103D8000F86800F0E7FC0346002B01D00223CCE0EA
:103D9000FB6893F83C30012B01D10223C5E0FB689E
:103DA000012283F83C20FB681B681B6803F00103B9
:103DB000012B07D0FB681B681A68FB681B6842F080
:103DC00001021A60FB681B681A68FB681B6822F412
:103DD00000621A60FB68212283F83D20FB684022C4
:103DE00083F83E20FB6800221A64FB683A6A5A6234
:103DF000FB68BA8C5A85FB685B8D9AB2FB681A85A2
:103E0000FB684D4ADA62F8883A8979897B690193BF
:103E1000BB6A00930346F86800F01EFB0346002BC4
:103E200052D0012381E07A69B96AF86800F068FD30
:103E30000346002B0DD0FB681B6C042B07D1FB68DD
:103E40001B681A68FB681B6842F400721A60012341
:103E50006BE0FB685B6A1A78FB681B681A61FB6899
:103E60005B6A5A1CFB685A62FB681B8D013B9AB265
:103E7000FB681A85FB685B8D9BB2013B9AB2FB68BD
:103E80005A85FB681B685B6903F00403042B1BD194
:103E9000FB681B8D002B17D0FB685B6A1A78FB68E8
:103EA0001B681A61FB685B6A5A1CFB685A62FB68F4
:103EB0001B8D013B9AB2FB681A85FB685B8D9BB238
:103EC000013B9AB2FB685A85FB681B8D002BAAD177
:103ED0007A69B96AF86800F054FD0346002B0DD0EA
:103EE000FB681B6C042B07D1FB681B681A68FB6816
:103EF0001B6842F400721A60012316E0FB681B681D
:103F00001A68FB681B6842F400721A60FB68202282
:103F100083F83D20FB68002283F83E20FB680022E6
:103F200083F83C20002300E0022318461837BD46E2
:103F300080BD00BF020010000000FFFF80B58CB004
:103F400002AFF860084611461A4603467B810B46CD
:103F50003B811346FB80FFF7BBFA7862FB6893F85E
:103F60003D30DBB2202B40F008827B6A009319239E
:103F700001227B49F86800F0EDFB0346002B01D0DD
:103F80000223FBE1FB6893F83C30012B01D10223B3
:103F9000F4E1FB68012283F83C20FB681B681B6886
:103FA00003F00103012B07D0FB681B681A68FB684C
:103FB0001B6842F001021A60FB681B681A68FB6804
:103FC0001B6822F400621A60FB68222283F83D20FD
:103FD000FB68402283F83E20FB6800221A64FB68DD
:103FE0003A6B5A62FB68BA8E5A85FB685B8D9AB24F
:103FF000FB681A85FB685B4ADA62F8883A89798936
:104000007B6A0193BB6B00930346F86800F0BAFA31
:104010000346002B01D00123B0E1FB681B8D002B70
:1040200013D100233B62FB681B685B693B62FB6842
:104030001B689B693B623B6AFB681B681A68FB68EC
:104040001B6842F400721A6084E1FB681B8D012B2F
:104050001BD1FB681B681A68FB681B6822F480622E
:104060001A600023FB61FB681B685B69FB61FB68EE
:104070001B689B69FB61FB69FB681B681A68FB682E
:104080001B6842F400721A6064E1FB681B8D022B0E
:104090001BD1FB681B681A68FB681B6822F48062EE
:1040A0001A60FB681B681A68FB681B6842F40062B0
:1040B0001A600023BB61FB681B685B69BB61FB681E
:1040C0001B689B69BB61BB6944E100237B61FB68A2
:1040D0001B685B697B61FB681B689B697B617B6913
:1040E00038E1FB681B8D032B00F2F180FB681B8D10
:1040F000012B23D17A6AB96BF86800F083FC034680
:10410000002B01D0012339E1FB681B681A69FB68A9
:104110005B6AD2B21A70FB685B6A5A1CFB685A620F
:10412000FB681B8D013B9AB2FB681A85FB685B8DAF
:104130009BB2013B9AB2FB685A850BE1FB681B8D71
:10414000022B4ED17B6A0093BB6B00220649F868B4
:1041500000F000FB0346002B08D001230EE100BF56
:10416000020010000000FFFF04000100FB681B6854
:104170001A68FB681B6842F400721A60FB681B68CF
:104180001A69FB685B6AD2B21A70FB685B6A5A1CD8
:10419000FB685A62FB681B8D013B9AB2FB681A856B
:1041A000FB685B8D9BB2013B9AB2FB685A85FB684A
:1041B0001B681A69FB685B6AD2B21A70FB685B6A9B
:1041C0005A1CFB685A62FB681B8D013B9AB2FB6864
:1041D0001A85FB685B8D9BB2013B9AB2FB685A85DE
:1041E000B8E07B6A0093BB6B00226649F86800F078
:1041F000B1FA0346002B01D00123BFE0FB681B6826
:104200001A68FB681B6822F480621A60FB681B68EE
:104210001A69FB685B6AD2B21A70FB685B6A5A1C47
:10422000FB685A62FB681B8D013B9AB2FB681A85DA
:10423000FB685B8D9BB2013B9AB2FB685A857B6A37
:104240000093BB6B00224F49F86800F083FA0346E5
:10425000002B01D0012391E0FB681B681A68FB6802
:104260001B6842F400721A60FB681B681A69FB68DD
:104270005B6AD2B21A70FB685B6A5A1CFB685A62AE
:10428000FB681B8D013B9AB2FB681A85FB685B8D4E
:104290009BB2013B9AB2FB685A85FB681B681A699E
:1042A000FB685B6AD2B21A70FB685B6A5A1CFB68D7
:1042B0005A62FB681B8D013B9AB2FB681A85FB684A
:1042C0005B8D9BB2013B9AB2FB685A8542E07A6AE9
:1042D000B96BF86800F096FB0346002B01D0012370
:1042E0004CE0FB681B681A69FB685B6AD2B21A7003
:1042F000FB685B6A5A1CFB685A62FB681B8D013BBA
:104300009AB2FB681A85FB685B8D9BB2013B9AB23F
:10431000FB685A85FB681B685B6903F00403042B88
:1043200018D1FB681B681A69FB685B6AD2B21A7005
:10433000FB685B6A5A1CFB685A62FB681B8D013B79
:104340009AB2FB681A85FB685B8D9BB2013B9AB2FF
:10435000FB685A85FB681B8D002B7FF4C2AEFB689F
:10436000202283F83D20FB68002283F83E20FB6872
:10437000002283F83C20002300E00223184628375F
:10438000BD4680BD0400010080B483B000AF7860FA
:1043900000BF0C37BD465DF8047B704780B483B026
:1043A00000AF786000BF0C37BD465DF8047B7047F6
:1043B00080B483B000AF786000BF0C37BD465DF8B5
:1043C000047B704780B483B000AF786000BF0C37C7
:1043D000BD465DF8047B704780B483B000AF786061
:1043E0000B46FB7013463B8000BF0C37BD465DF8A3
:1043F000047B704780B483B000AF786000BF0C3797
:10440000BD465DF8047B704780B483B000AF786030
:1044100000BF0C37BD465DF8047B704780B483B0A5
:1044200000AF786000BF0C37BD465DF8047B704775
:1044300080B483B000AF786000BF0C37BD465DF834
:10444000047B704780B483B000AF786000BF0C3746
:10445000BD465DF8047B704780B588B002AFF86058
:10446000084611461A4603467B810B463B8113469C
:10447000FB80FB681B681A68FB681B6842F480724B
:104480001A607B6A00933B6A00224FF00111F868C2
:1044900000F060F90346002B0DD0FB681B681B6819
:1044A00003F48073B3F5807F03D1FB684FF400728F
:1044B0001A6403235FE07B89DBB21A46FB681B6842
:1044C00002F0FE021A617B6A3A6A2D49F86800F030
:1044D00098F90346002B01D001234CE000237B61B7
:1044E000FB681B685B697B61FB681B689B697B6180
:1044F0007B697A6A396AF86800F002FA0346002B91
:104500000DD0FB681B6C042B07D1FB681B681A6875
:10451000FB681B6842F400721A6001232BE0FB88E1
:10452000012B05D13B89DAB2FB681B681A6121E0D7
:104530003B891B0A9BB2DAB2FB681B681A617A6A74
:10454000396AF86800F0DCF90346002B0DD0FB68EF
:104550001B6C042B07D1FB681B681A68FB681B687F
:1045600042F400721A60012305E03B89DAB2FB686D
:104570001B681A61002318461837BD4680BD00BF6E
:104580000200010080B588B002AFF860084611460D
:104590001A4603467B810B463B811346FB80FB6832
:1045A0001B681A68FB681B6842F480621A60FB682B
:1045B0001B681A68FB681B6842F480721A607B6A89
:1045C00000933B6A00224FF00111F86800F0C2F836
:1045D0000346002B0DD0FB681B681B6803F4807337
:1045E000B3F5807F03D1FB684FF400721A64032394
:1045F000AAE07B89DBB21A46FB681B6802F0FE0268
:104600001A617B6A3A6A5249F86800F0FAF8034680
:10461000002B01D0012397E000237B61FB681B681E
:104620005B697B61FB681B689B697B617B697A6A5C
:10463000396AF86800F064F90346002B0DD0FB6876
:104640001B6C042B07D1FB681B681A68FB681B688E
:1046500042F400721A60012376E0FB88012B05D139
:104660003B89DAB2FB681B681A6121E03B891B0AAF
:104670009BB2DAB2FB681B681A617A6A396AF86819
:1046800000F03EF90346002B0DD0FB681B6C042B99
:1046900007D1FB681B681A68FB681B6842F400724C
:1046A0001A60012350E03B89DAB2FB681B681A618B
:1046B0007A6A396AF86800F023F90346002B0DD0B6
:1046C000FB681B6C042B07D1FB681B681A68FB682E
:1046D0001B6842F400721A60012335E0FB681B6816
:1046E0001A68FB681B6842F480721A607B6A009348
:1046F0003B6A00224FF00111F86800F02BF80346E6
:10470000002B0DD0FB681B681B6803F48073B3F5A6
:10471000807F03D1FB684FF400721A64032313E017
:104720007B89DBB243F00103DAB2FB681B681A61D4
:104730007B6A3A6A0649F86800F063F80346002B82
:1047400001D0012300E0002318461837BD4680BD84
:104750000200010080B584B000AFF860B9603B6032
:104760001346FB7125E03B68B3F1FF3F21D0FEF714
:10477000AFFE0246BB69D31A3A689A4202D33B683D
:10478000002B16D1FB6800221A63FB68202283F8F5
:104790003D20FB68002283F83E20FB681B6C43F041
:1047A0002002FB681A64FB68002283F83C20012386
:1047B00023E0BB681B0CDBB2012B0DD1FB681B682F
:1047C0005B69DA43BB6813409BB2002B0CBF01232B
:1047D0000023DBB21A460CE0FB681B689B69DA43D6
:1047E000BB6813409BB2002B0CBF01230023DBB23C
:1047F0001A46FB799A42B6D0002318461037BD46B8
:1048000080BD80B584B000AFF860B9607A603B606D
:1048100051E0FB681B685B6903F48063B3F5806F4C
:1048200023D1FB681B681A68FB681B6842F400729E
:104830001A60FB681B686FF480625A61FB68002293
:104840001A63FB68202283F83D20FB68002283F86E
:104850003E20FB681B6C43F00402FB681A64FB6893
:10486000002283F83C20012346E07B68B3F1FF3F40
:1048700021D0FEF72DFE02463B68D31A7A689A4291
:1048800002D37B68002B16D1FB6800221A63FB68F9
:10489000202283F83D20FB68002283F83E20FB683D
:1048A0001B6C43F02002FB681A64FB68002283F84B
:1048B0003C20012320E0BB681B0CDBB2012B0CD198
:1048C000FB681B685B69DA43BB6813409BB2002B33
:1048D00014BF01230023DBB20BE0FB681B689B695C
:1048E000DA43BB6813409BB2002B14BF01230023A3
:1048F000DBB2002B8DD1002318461037BD4680BD9A
:1049000080B584B000AFF860B9607A602DE0F868D7
:1049100000F0CEF80346002B01D001232DE0BB6848
:10492000B3F1FF3F21D0FEF7D3FD02467B68D31AD7
:10493000BA689A4202D3BB68002B16D1FB680022EA
:104940001A63FB68202283F83D20FB68002283F86D
:104950003E20FB681B6C43F02002FB681A64FB6876
:10496000002283F83C20012307E0FB681B685B6999
:1049700003F08003802BCAD1002318461037BD46B0
:1049800080BD80B584B000AFF860B9607A602DE07A
:10499000F86800F08DF80346002B01D001232DE0CC
:1049A000BB68B3F1FF3F21D0FEF792FD02467B6862
:1049B000D31ABA689A4202D3BB68002B16D1FB689F
:1049C00000221A63FB68202283F83D20FB68002246
:1049D00083F83E20FB681B6C43F02002FB681A64DE
:1049E000FB68002283F83C20012307E0FB681B687A
:1049F0005B6903F00403042BCAD100231846103767
:104A0000BD4680BD80B584B000AFF860B9607A6003
:104A100042E0FB681B685B6903F01003102B19D19F
:104A2000FB681B686FF010025A61FB6800221A6372
:104A3000FB68202283F83D20FB68002283F83E209B
:104A4000FB681A6CFB681A64FB68002283F83C2040
:104A5000012329E0FEF73CFD02467B68D31ABA68C1
:104A60009A4202D3BB68002B16D1FB6800221A635E
:104A7000FB68202283F83D20FB68002283F83E205B
:104A8000FB681B6C43F02002FB681A64FB68002281
:104A900083F83C20012307E0FB681B685B6903F097
:104AA0004003402BB5D1002318461037BD4680BDCA
:104AB00080B483B000AF78607B681B685B6903F4E7
:104AC0008063B3F5806F1BD17B681B686FF48062D5
:104AD0005A617B6800221A637B68202283F83D209C
:104AE0007B68002283F83E207B681B6C43F0040245
:104AF0007B681A647B68002283F83C20012300E075
:104B0000002318460C37BD465DF8047B7047000053
:104B100080B586B000AF78607B68002B01D101239F
:104B200064E27B681B6803F00103002B75D0A34B84
:104B30009B6803F00C03042B0CD0A04B9B6803F084
:104B40000C03082B12D19D4B5B6803F48003B3F573
:104B5000800F0BD1994B1B6803F40033002B5BD003
:104B60007B685B68002B57D101233FE27B685B6861
:104B7000B3F5803F06D1914B1B68904A43F48033D4
:104B800013601DE07B685B68B3F5A02F0CD18B4BE5
:104B90001B688A4A43F480231360884B1B68874A4A
:104BA00043F4803313600BE0844B1B68834A23F487
:104BB00080331360814B1B68804A23F48023136089
:104BC0007B685B68002B13D0FEF782FC386108E03D
:104BD000FEF77EFC02463B69D31A642B01D90323FE
:104BE00004E2764B1B6803F40033002BF0D014E092
:104BF000FEF76EFC386108E0FEF76AFC02463B698E
:104C0000D31A642B01D90323F0E16C4B1B6803F426
:104C10000033002BF0D100E000BF7B681B6803F07D
:104C20000203002B63D0654B9B6803F00C03002B41
:104C30000BD0624B9B6803F00C03082B1CD15F4B1D
:104C40005B6803F48003002B16D15C4B1B6803F0F8
:104C50000203002B05D07B68DB68012B01D0012308
:104C6000C4E1564B1B6823F0F8027B681B69DB002C
:104C7000524913430B603AE07B68DB68002B20D07D
:104C80004F4B01221A60FEF723FC386108E0FEF763
:104C90001FFC02463B69D31A022B01D90323A5E16D
:104CA000464B1B6803F00203002BF0D0434B1B68FC
:104CB00023F0F8027B681B69DB00404913430B605B
:104CC00015E03F4B00221A60FEF702FC386108E055
:104CD000FEF7FEFB02463B69D31A022B01D90323E0
:104CE00084E1364B1B6803F00203002BF0D17B6894
:104CF0001B6803F00803002B30D07B685B69002B36
:104D000016D0304B01221A60FEF7E2FB386108E052
:104D1000FEF7DEFB02463B69D31A022B01D90323BF
:104D200064E1264B5B6F03F00203002BF0D015E02B
:104D3000244B00221A60FEF7CBFB386108E0FEF737
:104D4000C7FB02463B69D31A022B01D903234DE16D
:104D50001A4B5B6F03F00203002BF0D17B681B68DA
:104D600003F00403002B00F0A0800023FB75134B1D
:104D70001B6C03F08053002B0FD10023BB600F4B43
:104D80001B6C0E4A43F0805313640C4B1B6C03F0F6
:104D90008053BB60BB680123FB750B4B1B6803F49E
:104DA0008073002B21D1084B1B68074A43F48073A2
:104DB0001360FEF78DFB386111E000BF0038024040
:104DC00000004742800E474200700040FEF780FB23
:104DD00002463B69D31A022B01D9032306E1854B16
:104DE0001B6803F48073002BF0D07B689B68012B59
:104DF00006D1814B1B6F804A43F0010313671CE00F
:104E00007B689B68052B0CD17B4B1B6F7A4A43F068
:104E100004031367784B1B6F774A43F00103136752
:104E20000BE0754B1B6F744A23F001031367724B41
:104E30001B6F714A23F0040313677B689B68002B88
:104E400015D0FEF745FB38610AE0FEF741FB02464C
:104E50003B69D31A41F28832934201D90323C5E05A
:104E6000654B1B6F03F00203002BEED014E0FEF73E
:104E70002FFB38610AE0FEF72BFB02463B69D31A91
:104E800041F28832934201D90323AFE05A4B1B6FA2
:104E900003F00203002BEED1FB7D012B05D1564B15
:104EA0001B6C554A23F0805313647B689B69002B6D
:104EB00000F09B80504B9B6803F00C03082B5CD0E8
:104EC0007B689B69022B41D14C4B00221A60FEF794
:104ED000FFFA386108E0FEF7FBFA02463B69D31A95
:104EE000022B01D9032381E0434B1B6803F00073BD
:104EF000002BF0D17B68DA697B681B6A1A437B68F8
:104F00005B6A9B011A437B689B6A5B08013B1B043D
:104F10001A437B68DB6A1B06374913434B60374BE8
:104F200001221A60FEF7D4FA386108E0FEF7D0FAE1
:104F300002463B69D31A022B01D9032356E02E4BBC
:104F40001B6803F00073002BF0D04EE02B4B0022C7
:104F50001A60FEF7BDFA386108E0FEF7B9FA0246BA
:104F60003B69D31A022B01D903233FE0224B1B6874
:104F700003F00073002BF0D137E07B689B69012BB5
:104F800001D1012332E01C4B5B68FB607B689B69AD
:104F9000012B28D0FB6803F480027B68DB699A420E
:104FA00021D1FB6803F03F027B681B6A9A421AD149
:104FB000FA6847F6C07313407A68526A92019342C6
:104FC00011D1FB6803F440327B689B6A5B08013BAC
:104FD0001B049A4207D1FB6803F070627B68DB6AAE
:104FE0001B069A4201D0012300E00023184618371F
:104FF000BD4680BD0070004000380240600047425E
:1050000080B584B000AF786039607B68002B01D137
:105010000123CCE0684B1B6803F007033A689A420F
:105020000CD9654B3A68D2B21A70634B1B6803F017
:1050300007033A689A4201D00123B8E07B681B68F5
:1050400003F00203002B20D07B681B6803F00403ED
:10505000002B05D0594B9B68584A43F4E0539360AA
:105060007B681B6803F00803002B05D0534B9B683B
:10507000524A43F460439360504B9B6823F0F00224
:105080007B689B684D4913438B607B681B6803F00A
:105090000103002B44D07B685B68012B07D1474B91
:1050A0001B6803F40033002B19D101237FE07B68D8
:1050B0005B68022B03D07B685B68032B07D13F4BF7
:1050C0001B6803F00073002B09D101236FE03B4BF9
:1050D0001B6803F00203002B01D1012367E0374B6B
:1050E0009B6823F003027B685B68344913438B6041
:1050F000FEF7EEF9F8600AE0FEF7EAF90246FB680F
:10510000D31A41F28832934201D903234FE02B4B4B
:105110009B6803F00C027B685B689B009A42EBD1B2
:10512000254B1B6803F007033A689A420CD2224BC6
:105130003A68D2B21A70204B1B6803F007033A6832
:105140009A4201D0012332E07B681B6803F004031C
:10515000002B08D0194B9B6823F4E0527B68DB6876
:10516000164913438B607B681B6803F00803002B10
:1051700009D0124B9B6823F460427B681B69DB00FB
:105180000E4913438B6000F021F802460B4B9B68DD
:105190001B0903F00F030A49CB5C22FA03F3094A07
:1051A0001360094B1B681846FEF74EF9002318469A
:1051B0001037BD4680BD00BF003C024000380240B1
:1051C000849F0008380000204C000020B0B584B057
:1051D00000AF002179600021F960002139600021D1
:1051E000B9605249896801F00C0108290DD00829DD
:1051F00000F29480002902D0042903D08EE04C4BA9
:10520000BB608EE04B4BBB608BE04849496801F0C6
:105210003F0179604549496801F48001002924D0A3
:1052200042494968890908464FF0000140F2FF14DD
:105230004FF0000500EA040201EA05033D4901FBC5
:1052400003F0002101FB02F144183A49A2FB0101DD
:10525000631819467B681A464FF00003FBF7FCFC05
:1052600002460B461346FB604AE0304B5B689B09E5
:105270001A464FF0000340F2FF104FF0000102EA1F
:10528000000403EA0105204629464FF000024FF0D2
:1052900000034B0143EAD063420110461946001B4C
:1052A00061EB05014FF000024FF000038B0143EA70
:1052B00090638201121A63EB01034FF000004FF07C
:1052C0000001D90041EA5271D00002460B46121982
:1052D00045EB03034FF000004FF00001990241EA53
:1052E0009251900202460B46104619467B681A46B8
:1052F0004FF00003FBF7B0FC02460B461346FB6081
:105300000A4B5B681B0C03F0030301335B003B603B
:10531000FA683B68B2FBF3F3BB6002E0044BBB608E
:1053200000BFBB6818461037BD46B0BD003802400C
:105330000024F40040787D0180B400AF034B1B686B
:105340001846BD465DF8047B704700BF380000205A
:1053500080B500AFFFF7F0FF0246054B9B689B0A44
:1053600003F007030349CB5C22FA03F3184680BD20
:1053700000380240949F000880B500AFFFF7DCFFC3
:105380000246054B9B685B0B03F007030349CB5CAC
:1053900022FA03F3184680BD00380240949F0008AB
:1053A00080B586B000AF786000237B6100233B614D
:1053B0007B681B6803F00103002B05D17B681B6829
:1053C00003F00403002B38D0684B00221A60FEF76C
:1053D0007FF8786108E0FEF77BF802467B69D31A14
:1053E000022B01D90323BDE0614B1B6803F000636E
:1053F000002BF0D17B685A687B689B689B011A433D
:105400007B68DB681B075A491343C1F88430574B4C
:1054100001221A60FEF75CF8786108E0FEF758F8A0
:1054200002467B69D31A022B01D903239AE0504B21
:105430001B6803F00063002BF0D07B681B6803F04F
:105440000203002B00F083800023FB60484B1B6CA1
:10545000474A43F080531364454B1B6C03F0805361
:10546000FB60FB68434B1B68424A43F48073136044
:10547000FEF72EF8786108E0FEF72AF802467B690D
:10548000D31A022B01D903236CE03A4B1B6803F4B7
:105490008073002BF0D0364B1B6F03F440733B61DD
:1054A0003B69002B2FD07B681B6903F440733A697A
:1054B0009A4228D02E4B1B6F23F440733B612E4B36
:1054C00001221A602C4B00221A60294A3B6913679B
:1054D000274B1B6F03F00103012B14D1FDF7F8FFDD
:1054E00078610AE0FDF7F4FF02467B69D31A41F2C6
:1054F0008832934201D9032334E01D4B1B6F03F024
:105500000203002BEED07B681B6903F44073B3F5F4
:10551000407F0DD1164B9B6823F4F8127B681B6902
:1055200023F0704323F44073114913438B6005E06B
:105530000F4B9B680E4A23F4F81393600C4B1A6FC1
:105540007B681B69C3F30B03094913430B677B6833
:105550001B6803F00803002B03D07B681A7D074B00
:105560001A60002318461837BD4680BD68004742C0
:105570000038024000700040400E4742E0114742B0
:1055800080B582B000AF78607B68002B01D1012329
:1055900083E07B685B7FDBB2002B05D17B68002258
:1055A0001A777868FCF71CFC7B6802225A777B68C4
:1055B0001B68CA225A627B681B6853225A62786849
:1055C00000F097F80346002B08D07B681B68FF2289
:1055D0005A627B6804225A7701235EE07B681B686D
:1055E0009B687A68126823F4E00323F04003936019
:1055F0007B681B6899687B685A687B681B691A43DB
:105600007B685B691A437B681B680A439A607B6806
:105610001B687A68D2681A617B681B6819697B68A5
:105620009B681A047B681B680A431A617B681B68C5
:10563000DA687B681B6822F08002DA607B681B688E
:105640009B6803F02003002B0ED1786800F029F846
:105650000346002B08D07B681B68FF225A627B68D8
:1056600004225A77012318E07B681B681A6C7B6858
:105670001B6822F480221A647B681B68196C7B68A3
:105680009A697B681B680A431A647B681B68FF225F
:105690005A627B6801225A77002318460837BD46B4
:1056A00080BD80B584B000AF78600023FB607B686C
:1056B0001B68DA687B681B6822F0A002DA60FDF7DD
:1056C00007FFF86009E0FDF703FF0246FB68D31A05
:1056D000B3F57A7F01D9032307E07B681B68DB6899
:1056E00003F02003002BEED0002318461037BD46F0
:1056F00080BD80B584B000AF78600023FB607B681C
:105700001B68DB6803F04003002B19D17B681B6822
:105710004FF0FF32DA60FDF7DBFEF86009E0FDF7DD
:10572000D7FE0246FB68D31AB3F57A7F01D903236B
:1057300007E07B681B68DB6803F04003002BEED0BA
:10574000002318461037BD4680BD000080B582B0EA
:1057500000AF78607B68002B01D101234CE07B68AF
:1057600093F83D30DBB2002B11D17B68002283F827
:105770003C20786801F010F97B689B6C002B02D10B
:105780007B681F4A9A647B689B6C786898477B6843
:10579000022283F83D207B681A687B68043319462F
:1057A000104600F02DFE7B68012283F846207B68BE
:1057B000012283F83E207B68012283F83F207B682A
:1057C000012283F840207B68012283F841207B6816
:1057D000012283F842207B68012283F843207B6802
:1057E000012283F844207B68012283F845207B68EE
:1057F000012283F83D20002318460837BD4680BDAE
:105800004923000880B485B000AF78607B6893F8C6
:105810003D30DBB2012B01D0012344E07B68022242
:1058200083F83D207B681B68DA687B681B6842F060
:105830000102DA607B681B681E4A934218D07B68BD
:105840001B68B3F1804F13D07B681B681A4A9342E0
:105850000ED07B681B68194A934209D07B681B688D
:10586000174A934204D07B681B68164A934211D1B1
:105870007B681B689B6803F00703FB60FB68062BD3
:1058800010D07B681B681A687B681B6842F00102B5
:105890001A6007E07B681B681A687B681B6842F027
:1058A00001021A60002318461437BD465DF8047BD8
:1058B000704700BF000001400004004000080040A5
:1058C000000C00400040014080B582B000AF78601D
:1058D0007B68002B01D101234CE07B6893F83D30BD
:1058E000DBB2002B11D17B68002283F83C20786862
:1058F00001F052F87B681B6E002B02D17B681F4AB7
:105900001A667B681B6E786898477B68022283F86A
:105910003D207B681A687B6804331946104600F006
:105920006FFD7B68012283F846207B68012283F8A3
:105930003E207B68012283F83F207B68012283F8A8
:1059400040207B68012283F841207B68012283F894
:1059500042207B68012283F843207B68012283F880
:1059600044207B68012283F845207B68012283F86C
:105970003D20002318460837BD4680BD81590008E8
:1059800080B483B000AF786000BF0C37BD465DF8CF
:10599000047B704780B584B000AF786039603B68A5
:1059A000002B09D17B6893F83E30DBB2012B14BF8A
:1059B00001230023DBB222E03B68042B09D17B6882
:1059C00093F83F30DBB2012B14BF01230023DBB27D
:1059D00015E03B68082B09D17B6893F84030DBB2B7
:1059E000012B14BF01230023DBB208E07B6893F88E
:1059F0004130DBB2012B14BF01230023DBB2002BAB
:105A000001D0012368E03B68002B04D17B680222AF
:105A100083F83E2013E03B68042B04D17B6802220C
:105A200083F83F200BE03B68082B04D17B680222FF
:105A300083F8402003E07B68022283F841207B68E2
:105A40001B6801223968184600F080FF7B681B68DC
:105A5000234A934207D17B681B685A6C7B681B689A
:105A600042F400425A647B681B681D4A934218D076
:105A70007B681B68B3F1804F13D07B681B68194AA1
:105A800093420ED07B681B68174A934209D07B680B
:105A90001B68164A934204D07B681B68144A9342E1
:105AA00011D17B681B689B6803F00703FB60FB68F0
:105AB000062B10D07B681B681A687B681B6842F055
:105AC00001021A6007E07B681B681A687B681B6824
:105AD00042F001021A60002318461037BD4680BD0F
